:04000000803197288C
:100008007E14803120007F08D300931C7A28931037
:100018000130D8070030D93D4B30A7009830A600F2
:100028009630A5008030A4003B000F08F0001008AF
:10003800F1001108F200F30100309D31852580316F
:1000480073082000A3007208A2007108A1007008BC
:10005800A00091314C21803120002308BD002208E6
:10006800BC002108BB002008BA005708C100560888
:10007800C0005508BF005408BE00963104268031E0
:1000880020003D08D7003C08D6003B08D5003A08B8
:10009800D4005908803AD20080305202031D5628F5
:1000A8003C305802031C92282000D801D901570877
:1000B8002300A300200056082300A20020005508B2
:1000C8002300A100200054082300A00001302000D4
:1000D800D20052082300A40000302000D7000030CE
:1000E800D6000030D5000030D4009228121E922885
:1000F8001212003030001302B13003191202031C2F
:100108008C2800301302B63003191202031C9228FF
:1001180001302000D20052082300A5002000530817
:10012800FF007E10090080319928D401D501D6013D
:10013800D701D801D9012300A001A101A201A3017F
:10014800A401A5017E102000903159283E302200DC
:10015800C8004808D20022003D08C9003C08C80071
:10016800BC0A0319BD0A480884004908850000082C
:10017800CA004A08E700670803190800253067061F
:100188000319CB2867089C3105248031AF28220049
:10019800DF01E001DD01DE01D6285D150130BC0775
:1001A8000030BD3D3C0884003D0885000008303A19
:1001B8000319D128DF283C0884003D088500000881
:1001C8008731F1278031031C21292200DF01E0015A
:1001D8000A302100A0000030A100220060082100A0
:1001E800A30022005F082100A2009C310F24803167
:1001F800210021082200E000210020082200DF0061
:100208003C0884003D0885000008D03EC800FF3047
:1002180003180030C9004808DF074908E03D0130ED
:10022800BC070030BD3D3C0884003D08850000083F
:100238008731F12780310318EC2822003C0884001C
:100248003D08850012002E3A031D67295E1701300C
:10025800BC070030BD3DE501E6013C0884003D08CF
:10026800850000088731F1278031031C6E292200A0
:100278003C0884003D0885000008C800C9016608DC
:100288002100A100220065082100A0000A30A20078
:100298000030A3009C310F2480312200480821003F
:1002A80020072200CA0049082100213D2200CB0076
:1002B8004A08D03EE500FF304B3DE6000130BC0760
:1002C8000030BD3D31292200E501E6015E166E29A8
:1002D8005E15892922003D08C9003C08C800BC0AEF
:1002E8000319BD0A48088400490885000008E7008A
:1002F800003A0319D02F643A03198929023A0319DD
:100308006C290F3A03198929AF2800305D05C80008
:1003180007305E05C900480849040319622E5E1EAD
:1003280099290630E5000030E600520886000130C1
:100338008700403FE100413FE200423FE300433F86
:10034800E4000430C8004808D20764082100A3006C
:10035800220063082100A200220062082100A100F7
:10036800220061082100A0000030A7000030A6008C
:100378000030A5000030A4009E31B026803103185B
:10038800EC29220064082100A30022006308210050
:10039800A200220062082100A100220061082100B9
:1003A800A0009B31FB238031210023082200E400B8
:1003B800210022082200E300210021082200E20097
:1003C800210020082200E1000330DD040030DE04B3
:1003D8002200DB01DC016408630462046104031980
:1003E800CA2A6108C8006208C9006308CA0064080C
:1003F800CB0003104A0D4B0D823EDB00FF30031883
:100408000030DC00FF30DB07FF30DC3D033021002B
:10041800A0000030A10022005C082100A3002200F7
:100428005B082100A2009C310F24803121002108A3
:100438002200DC00210020082200DB000A30210015
:10044800A7000030A80022005C082100AA002200B2
:100458005B082100A9009C31B424803121002808C0
:100468002200DC00210027082200DB00DC1F402AD4
:10047800FF30DB07FF30DC3D5B03FF3A8D31702531
:10048800803121004D082200D60021004C082200AE
:10049800D50021004B082200D40021004A08220080
:1004A800D30064082100B300220063082100B200D1
:1004B800220062082100B100220061082100B0007A
:1004C800220056082100B700220055082100B60076
:1004D800220054082100B500220053082100B4006E
:1004E8008831E4208031210033082200D600210021
:1004F80032082200D500210031082200D400210052
:1005080030082200D30056082100A3002200550815
:100518002100A200220054082100A1002200530853
:100528002100A0003F30A7008030A6000030A500C1
:100538000030A4009E31B02680310318A82AFF306D
:100548002200DB07FF30C92A220056082100A30039
:10055800220055082100A200220054082100A10011
:10056800220053082100A0004130A7002030A60037
:100578000030A5000030A4009E31B0268031031C55
:10058800CA2A01302200DB070030DC3D2200660861
:10059800803AC80080304802031DD42A0D30650215
:1005A8000318FF2A2200650894316A24803121004B
:1005B8004D082200A30021004C082200A2002100BF
:1005C8004B082200A10021004A082200A00064086C
:1005D800A7006308A6006208A5006108A4008B3183
:1005E8001023803122002308E4002208E3002108B8
:1005F800E2002008E10022005C08803AC800803050
:100608004802031D092B0A305B020318372B22000E
:1006180064086304620461040319AA2B64082100B6
:10062800E600220063082100E5002200620821009C
:10063800E400220061082100E3009D310625803195
:1006480021006608650464046304031DAA2B2200C4
:100658005C08803AC80080304802031D352B023000
:100668005B02031CAA2B220056082100A3002200CB
:1006780055082100A200220054082100A1002200F0
:1006880053082100A0004030A7008930A600703030
:10069800A5005F30A4009E31B02680310318562B88
:1006A800F730572BF8302200DB07FF30DC3D5B08C2
:1006B8008D317025803121004D082200D60021009F
:1006C8004C082200D50021004B082200D40021004C
:1006D8004A082200D30064082100A300220063080E
:1006E8002100A200220062082100A1002200610866
:1006F8002100A000220056082100A700220055086A
:100708002100A600220054082100A5002200530859
:100718002100A40088311F208031210023082200F5
:10072800DA00210022082200D90021002108220035
:10073800D800210020082200D7000030E400003053
:10074800E3000030E2000030E100062C22006408DB
:100758002100E600220063082100E500220062086B
:100768002100E400220061082100E3009D310625F4
:100778008031210066082200DA0021006508220085
:10078800D900210064082200D80021006308220053
:10079800D7005A082100A300220059082100A2000E
:1007A800220058082100A100220057082100A000BB
:1007B80000309E311A268031210023082200B7001C
:1007C800210022082200B600210021082200B500DD
:1007D800210020082200B4006408BB006308BA00A6
:1007E8006208B9006108B800883100208031220011
:1007F8003708E4003608E3003508E2003408E10071
:10080800DB01DC01E701E70A0A3067060319392C26
:100818006708C800C901C835C90DC835C90D683091
:10082800480784009830493D8500003FCA00013FD1
:10083800CB00023FCC00033FCD004D085A02031DF8
:100848002F2C4C085902031D2F2C4B085802031D4E
:100858002F2C4A085702031C392C0130C8004808BD
:10086800E7070A306706031D0C2C6708C800C90192
:10087800C81BC90365084807CA006608493DCB007C
:100888005B084A07CC005C084B3DCD004C08DF02F2
:100898004D08E03B650866040319562CFF30DF0756
:1008A800FF30E03D03305D05C80000305E05C9003B
:1008B800480849040319642CFF30DF07FF30E03D86
:1008C8005D1D932C03305D05C80000305E05C9002E
:1008D800480849040319742C2D309C3105248031B3
:1008E80022006008803AC80080304802031D7E2C30
:1008F80001305F02031CAE2C30309C31052480315E
:10090800FF302200DF07FF30E03D742C20309C319F
:1009180005248031FF302200DF07FF30E03D220050
:100928006008803AC80080304802031D9D2C0130C1
:100938005F0203188A2C033022005D05C8000030CE
:100948005E05C900480849040319AE2C2D309C31B6
:1009580005248031FF302200C8004808E707670AED
:100968000319282D22006708C800C901C835C90D18
:10097800C835C90D6830480784009830493D85005E
:10098800003F2100A000013FA100023FA200033F59
:10099800A30022005A082100A700220059082100BC
:1009A800A600220058082100A500220057082100AF
:1009B800A400903106208031210023082200D600AF
:1009C800210022082200D500210021082200D4009D
:1009D800210020082200D30000302100B10000309F
:1009E800B0000030AF000A30AE00220056082100E7
:1009F800B500220055082100B40022005408210047
:100A0800B300220053082100B2009C312B2480310E
:100A1800210031082200D600210030082200D5002C
:100A280021002F082200D40021002E082200D30024
:100A38005308303EAB2C30309C3105248031FF30D8
:100A48002200DB07FF30DC3D5C08803AC8008030BC
:100A58004802031D312D01305B0203181F2D2200AF
:100A68006608803AC80080304802031D3D2D0930D1
:100A78006502031C422D08302200442D220065081F
:100A8800C8004808E7006708C800C901C81BC903AF
:100A98004808E5024908E63B67080319572D2E3038
:100AA8009C3105248031220067088D317025803102
:100AB80021004D082200D10021004C082200D0005E
:100AC80021004B082200CF0021004A082200CE0056
:100AD80051082100B700220050082100B60022006A
:100AE8004F082100B50022004E082100B400220062
:100AF80064082100B300220063082100B20022002C
:100B080062082100B100220061082100B00088318C
:100B1800E420803121003308E6003208E50031087E
:100B2800E4003008E3009D31062580312100660885
:100B38002200DA00210065082200D900210064089B
:100B48002200D800210063082200D700FF30C80027
:100B58004808E707670A03195D2E6708C800C90136
:100B6800C835C90DC835C90D6830480784009830A4
:100B7800493D8500003F2100A000013FA100023F40
:100B8800A200033FA30022005A082100A700220068
:100B980059082100A600220058082100A5002200BB
:100BA80057082100A4009031062080312100230835
:100BB8002200D600210022082200D50021002108A9
:100BC8002200D400210020082200D3000030210098
:100BD800B1000030B0000030AF000A30AE00220093
:100BE80056082100B500220055082100B400220053
:100BF80054082100B300220053082100B2009C31A0
:100C08002B248031210031082200D6002100300831
:100C18002200D50021002F082200D40021002E0830
:100C28002200D3005308303E9C3105248031220035
:100C38006708C800C901C835C90DC835C90D68306D
:100C4800480784009830493D8500003F2100AE00E8
:100C5800013FAF00023FB000033FB10022005A0835
:100C68002100B500220059082100B40022005808CC
:100C78002100B300220057082100B2009C312B2428
:100C88008031210031082200DA00210030082200DA
:100C9800D90021002F082200D80021002E08A82DF5
:100CA80030309C3105248031FF302200E507FF30C9
:100CB800E63D650866040319AF28542E52088600DD
:100CC80001308700403FC800413FC9004808D700AD
:100CD8004908D800890D893B8909D900DA00023012
:100CE800C8004808D207DA1F882E0330DD04003018
:100CF800DE04D709D809D909DA09D70A0319D80AA5
:100D08000319D90A0319DA0A65086604031D962E21
:100D18005A08590458045704031D962E0130E50754
:100D28000030E63DE701E70A0A3067060319C92ED5
:100D38006708C800C901C835C90DC835C90D68306C
:100D4800480784009830493D8500003FCA00013FAC
:100D5800CB00023FCC00033FCD004D085A02031DD3
:100D6800BF2E4C085902031DBF2E4B085802031D05
:100D7800BF2E4A085702031CC92E0130C800480874
:100D8800E7070A306706031D9C2E6708C800C901DB
:100D9800C81BC9034908803ACA006608803A4A0253
:100DA800031DD82E650848020318E02E22006508A6
:100DB800C8004808E700F82E22006708C800C901E3
:100DC800C81BC9036608803ACA004908803A4A0223
:100DD800031DF02E480865020318F82E2200670844
:100DE800E500E601E51BE60322005F08600403193D
:100DF8000B2F03305D05C80000305E05C9004808A8
:100E0800490403190B2FFF30DF07FF30E03D5E1F59
:100E1800222F6608803AC8006008803A4802031DFD
:100E2800172F5F08650203181F2F22006508DF02CD
:100E38006608E03B222F2200DF01E0016708C800B6
:100E4800C901C81BC9034908803ACA006008803A2A
:100E58004A02031D312F5F08480203183E2F220063
:100E68006708C800C901C81BC9034808DF02490848
:100E7800E03B412F2200DF01E0015D1D602F0330C0
:100E88005D05C80000305E05C9004808490403191B
:100E9800512F2D309C310524803122005F086004D9
:100EA80003197F2F30309C3105248031FF30220018
:100EB800DF07FF30E03D522F5F0860040319712FF0
:100EC80020309C3105248031FF302200DF07FF30BD
:100ED800E03D5F086004031D642F03305D05C80012
:100EE80000305E05C9004808490403197F2F2D30DA
:100EF8009C3105248031FF302200E507FF30E63DB4
:100F0800650A0319660A0319AF2800302100B100E9
:100F18000030B0000030AF000A30AE002200660892
:100F28008500650884008435850D8435850D683015
:100F380084079830853D003F2100A000013FA100B3
:100F4800023FA200033FA30022005A082100A70085
:100F5800220059082100A600220058082100A500F7
:100F6800220057082100A40090310620803121007A
:100F78002308B5002208B4002108B3002008B200F5
:100F88009C312B24803121002E08303E2200C800DD
:100F98004808E70067087C2F08002100A800A40182
:100FA800A5012008A200A3012208A6002308A70083
:100FB800281CE22F2608A4072708A53D0130A635DE
:100FC800A70D890BE32F0310A80C2808031DDC2F9D
:100FD8002508A1002408A00008002100A100A00104
:100FE8003A3021020318FE2F30302102031CFE2F55
:100FF800A001A00A200C080080302200B7063B0898
:10100800A3003A08A2003908A1003808A000370850
:10101800A7003608A6003508A5003408A4008B31BF
:10102800102322002308B7002208B6002108B500C3
:101038002008B400080021002008A8002108A90001
:101048002208AA002308AB0003102A0D2B0DAC00C0
:101058002C08B2003208031D3A280030A3000030E3
:10106800A2000030A1000030A00008002408A80059
:101078002508A9002608AA002708AB0003102A0D96
:101088002B0DAC002C08B1003108031D542800308A
:10109800A3000030A2000030A1000030A00008002A
:1010A800A217FF30A005FF30A105FF30A2050030D0
:1010B800A305A617FF30A405FF30A505FF30A60538
:1010C8000030A7050030B0000030AF000030AE009F
:1010D8000030AD007F30B202A0303107A8002808E8
:1010E800B2022030A8002808B1000130AD35AE0D9D
:1010F800AF0DB00D890B7A2827082302031D8E280F
:1011080026082202031D8E2825082102031D8E2889
:1011180024082002031C99282408A0022508A13BC2
:101128002608A23B2708A33B2D140130A035A10DAA
:10113800A20DA30D890B9A280130B102031D79284D
:10114800B21FC2283208803A9F3E0318B4280030E4
:10115800A3000030A2000030A1000030A000080069
:101168000130B036AF0CAE0CAD0C890BB528013090
:10117800A8002808B2070319DB28B4282030320257
:10118800031CD8280030A3000030A2000030A100C2
:101198000030A00008000130AD35AE0DAF0DB00D28
:1011A800890BD0280130B2023208031DCF2830083D
:1011B800A3002F08A2002E08A1002D08A0000800F7
:1011C800210033088039B8003808BD003335B8002D
:1011D8003808C300B21B4314430803190029430A03
:1011E800031DFE280030B3000030B2000030B1000B
:1011F8000030B000B21708290030B3000030B20048
:101208000030B1000030B00037088039B800380825
:10121800BD063735B8003808C200B61B421442086C
:1012280003192329420A031D21290030B700003081
:10123800B6000030B5000030B400B6172B290030D6
:10124800B7000030B6000030B5000030B4004208E6
:10125800031D4308031D39290030B3000030B200D4
:101268000030B1000030B00008003008B80038087D
:10127800A00036088731D127883121002108C9000C
:101288002008C8004808B800B901BA01BB013B08EA
:10129800C1003A08C0003908BF003808BE00490834
:1012A800B800B901BA01BB013B08C7003A08C6003B
:1012B8003908C5003808C4003108B8003808A0004B
:1012C80035088731D127883121002108C900200835
:1012D800C8004808B800B901BA01BB013808BE0700
:1012E8003908BF3D3A08C03D3B08C13D4908B80030
:1012F800B901BA01BB013808C4073908C53D3A0825
:10130800C63D3B08C73D3208B8003808A00034087D
:101318008731D127883121002108C9002008C80059
:101328004808B800B901BA01BB013808BE07390836
:10133800BF3D3A08C03D3B08C13D4908B800B90166
:10134800BA01BB013808C4073908C53D3A08C63D8B
:101358003B08C73D0830BE35BF0DC00DC10D890B18
:10136800AF293108B8003808A00034088731D127E0
:10137800883121002108C9002008C8004808BE0794
:101388004908BF3D0030C03DC13D3008B8003808AD
:10139800A00035088731D127883121002108C900EC
:1013A8002008C8004808BE074908BF3D0030C03DB6
:1013B800C13D0830BE35BF0DC00DC10D890BDE29FA
:1013C8003008B8003808A00034088731D1278831A0
:1013D80021002108C9002008C8004808BE0749089C
:1013E800BF3D0030C03DC13D3108B8003808A000FD
:1013F80036088731D127883121002108C900200803
:10140800C8004808C4074908C53D0030C63DC73D67
:101418003208B8003808A00035088731D12788314C
:1014280021002108C9002008C8004808C407490845
:10143800C53D0030C63DC73D3208B8003808A00099
:1014480036088731D127883121002108C9002008B2
:10145800C8004808B8004908B900BA01BB010830FB
:10146800B835B90DBA0DBB0D890B342A3808C40735
:101478003908C53D3A08C63D3B08C73D3E08B80097
:101488003F08B9004008BA004108BB001830BB3615
:10149800BA0CB90CB80C890B4B2A3808C4073908A0
:1014A800C53D3A08C63D3B08C73D0830BE35BF0DAF
:1014B800C00DC10D890B5A2A43084207B800B9016B
:1014C800B90D3808823EC800FF30393DC900C61B37
:1014D800822A0130C435C50DC60DC70D890B6E2A89
:1014E800C11B44140130BE35BF0DC00DC10D890BA1
:1014F800772AFF30C807FF30C93D6B2AC201C11FD8
:101508009B2AFF303E05B800FF303F05B900FF3089
:101518004005BA007F304105BB003B083A04390456
:101528003804031D992A441C9B2AC201C20A420896
:101538000319C42A0130C4070030C53D0030C63D38
:101548000030C73D471CC42A4408B8004508B90004
:101558004608BA004708BB000130BC00BB37BA0CCC
:10156800B90CB80CBC0BB22A3B08C7003A08C60035
:101578003908C5003808C4000130C8070030C93D23
:101588004908803AB80080303802031DCD2AFF3060
:101598004802031CD92A7F302100C7008030C600CA
:1015A8000030C5000030C400032B21004908803AF0
:1015B800B80080303802031DE32A013048020318BE
:1015C800F02A00302100C7000030C6000030C500F6
:1015D8000030C400BD01032B21004808B8003808BA
:1015E800C300FF30C405FF30C5057F30C605003095
:1015F800C7054318C6174336B8003808C7003D0862
:10160800B8003808C7044708B3004608B2004508C0
:10161800B1004408B0000800220023088039A8005F
:1016280028082100EB0022002335A8002808210003
:10163800ED002200A21F222B21006D1421006D084D
:101648000319362B6D0A031D322B00302200A3002C
:101658000030A2000030A1000030A0002200A21734
:10166800A3013F2B00302200A3000030A20000306D
:10167800A1000030A00027088039A8002808210010
:10168800EC006C086B06031D6B1722002735A800B9
:1016980028082100EC002200A61F542B21006C14FE
:1016A80021006C080319682B6C0A031D642B003099
:1016B8002200A7000030A6000030A5000030A400DA
:1016C8002200A617A701712B00302200A7000030C6
:1016D800A6000030A5000030A40021006D086C02AF
:1016E8000318D12B6B1F7E2B80302200A8002808FE
:1016F8002100EB066D082200A80028082100EE0052
:101708006C082200A80028082100ED006E082200BD
:10171800A80028082100EC0022002008A8002808BA
:101728002100EE0022002408A8002808A0002100BB
:101738006E082200A8002808A4002108A80028088C
:101748002100EE0022002508A8002808A100210099
:101758006E082200A8002808A5002208A80028086A
:101768002100EE0022002608A8002808A200210077
:101778006E082200A8002808A6002308A800280848
:101788002100EE0022002708A8002808A300210055
:101798006E082200A8002808A7002100EE016D08A5
:1017A8002200A800A901A809A909A80A0319A90AD9
:1017B80021006C0822002807AA0029080318290A12
:1017C800AB002B08803AAC0080302C02031DEE2BB6
:1017D8001A302A02031C2E2C22002308220421047A
:1017E80020040319F92B0130FA2B0030A80028082F
:1017F8002100EE0000302200A3000030A2000030DB
:10180800A1000030A00021006C082200A8002808D0
:101818002100ED00332C6E1C192C6E360138220085
:10182800A80028082100EE001B2C0310EE0C220053
:10183800201C202C2100EE1701302200A800A3371D
:10184800A20CA10CA00CA80B232C0130A80028087E
:101858002100ED0721006C086D02031C0F2C6B1B87
:10186800702C6D08031D422C00302200A3000030AC
:10187800A2000030A1000030A000080022002408C7
:10188800A0072508A13D2608A23D2708A33D231C43
:10189800082D21006E1C5A2C0310EE0C6E0801381E
:1018A8002200A80028082100EE005C2C0310EE0C92
:1018B8002200201C612C2100EE1701302200A80014
:1018C800A337A20CA10CA00CA80B642C0130A80013
:1018D80028082100ED07082D22002308803AA800D7
:1018E8002708803A2802031D832C26082202031D9C
:1018F800832C25082102031D832C240820020318A9
:10190800D02CFF30A800FF30A900FF30AA00FF301C
:10191800AB002408AC002508AD002608AE00270857
:10192800AF002009B0002109B1002209B200230943
:10193800B300B00A0319B10A0319B20A0319B30AAA
:101948003008AC073108AD3D3208AE3D3308AF3D35
:101958002C08A8072D08A93D2E08AA3D2F08AB3D45
:101968002B08A3002A08A2002908A1002808A00023
:101978008030A80028082100EB06EE09EE0A6E0860
:10198800031DD82C01302200A0070030A13D0030F3
:10199800A23D0030A33DD82C2408A0022508A13B75
:1019A8002608A23B2708A33B22002308220421047F
:1019B8002004031D052D21006E08031D052D003090
:1019C8002200A3000030A2000030A1000030A000D7
:1019D80008000130A035A10DA20DA30D890BEE2C36
:1019E8002100EE1FF92C2200201421006E1CFE2C71
:1019F8000314FF2C0310EE0D6D080319052D01309B
:101A0800ED022200A21FED2C2100EC01EE1F162D85
:101A18006E087F39031D142D2200201C162D21006D
:101A2800EC01EC0A21006C080319472D0130220053
:101A3800A0070030A13D0030A23D0030A33D231C8B
:101A4800472D2008A8002108A9002208AA00230879
:101A5800AB000130AC00AB37AA0CA90CA80CAC0B3E
:101A68002F2D2B08A3002A08A2002908A100280866
:101A7800A00021006D0A0319472D01302200A8009B
:101A880028082100ED0721006D0A031D6D08031DBC
:101A98005A2D00302200A3000030A2000030A1001F
:101AA8000030A00021006D080319EB016D1C5F2DAB
:101AB8002200A217642D7F302200A8002808A20562
:101AC80021006D362200A8002808A3002100EB1F82
:101AD80008002200A31708002100E200E21FBB2E25
:101AE800E209E20A6208803A123E031C322E0A30EA
:101AF800A7000030A8006208A200A301A21BA3034C
:101B08006430A0000030A1009C316E248D3121008A
:101B18002108AA002008A9009C31B4248D31210095
:101B28002708CE002808CF00CE35CF0DCE35CF0DF3
:101B38004E08243ED00000304F3DD1000030500701
:101B480084009830513D8500003FD200013FD3000A
:101B5800023FD400033FD5005508B3005408B20033
:101B68005308B1005208B0006430A7000030A80044
:101B78006208A900AA01A91BAA039C31B4248D31CB
:101B880021002708D6002808D700D635D70DD63526
:101B9800D70D5608483ED8000030573DD9000030D0
:101BA800580784009830593D8500003FDA00013F0E
:101BB800DB00023FDC00033FDD005D08B7005C0886
:101BC800B6005B08B5005A08B4008831E4208D31AE
:101BD80021003308E1003208E0003108DF00300856
:101BE800DE000A30A0000030A1006208A200A301B4
:101BF800A21BA3039C316E248D312100210885008E
:101C0800200884008435850D8435850D00308407CF
:101C18009830853D003FCE00013FCF00023FD00005
:101C2800033FD1005108B3005008B2004F08B1007B
:101C38004E08B0006108B7006008B6005F08B5003C
:101C48005E08B4008831E42021003308CD00320852
:101C5800CC003108CB003008CA0008006208803A7E
:101C6800753E031C9D2E0A30A0000030A1006208BA
:101C7800A200A301A21BA3039C316E248D31210075
:101C880021088500200884008435850D8435850D5C
:101C9800003084079830853D003FCE00013FCF00DB
:101CA800023FD000033FD1005108B3005008B200F2
:101CB8004F08B1004E08B0000A30A7000030A80055
:101CC8006208A900AA01A91BAA039C31B4248D317A
:101CD80021002708D2002808D300D235D30DD235E9
:101CE800D30D5208243ED4000030533DD5000030B7
:101CF800540784009830553D8500003FD600013FC9
:101D0800D700023FD800033FD9005908B700580848
:101D1800B6005708B5005608B4008831E420210001
:101D28003308CD003208CC003108CB003008CA0097
:101D380008006208CE00CF01CE35CF0DCE35CF0DCD
:101D480000304E07840098304F3D8500003FD0009A
:101D5800013FD100023FD200033FD3005308CD001A
:101D68005208CC005108CB005008CA00080062088D
:101D7800803A123E031C772F0A30A7000030A800D3
:101D88006208A200A301A21BA3036430A0000030D4
:101D9800A1009C316E248D3121002108AA00200861
:101DA800A9009C31B4248D3121002708CE002808D1
:101DB800CF00CE35CF0DCE35CF0D4E08243ED00006
:101DC80000304F3DD1003430500784009830513DE9
:101DD8008500003FD200013FD300023FD400033FFB
:101DE800D5005508B3005408B2005308B100520892
:101DF800B0006430A7000030A8006208A900AA015A
:101E0800A91BAA039C31B4248D3121002708D600D0
:101E18002808D700D635D70DD635D70D5608483EF1
:101E2800D8000030573DD900343058078400983026
:101E3800593D8500003FDA00013FDB00023FDC002E
:101E4800033FDD005D08B7005C08B6005B08B5001D
:101E58005A08B4008831E4208D3121003308E100AC
:101E68003208E0003108DF003008DE000A30A00048
:101E78000030A1006208A200A301A21BA3039C31A9
:101E88006E248D31210021088500200884008435C6
:101E9800850D8435850D343084079830853D003FA5
:101EA800CE00013FCF00023FD000033FD1005108D0
:101EB800B3005008B2004F08B1004E08B0006108E6
:101EC800B7006008B6005F08B5005E08B400883146
:101ED800E42021003308CD003208CC003108CB00C3
:101EE8003008CA0008006208803A753E031CE22FD9
:101EF8000A30A0000030A1006208A200A301A21BC2
:101F0800A3039C316E248D3121002108850020080F
:101F180084008435850D8435850D343084079830E8
:101F2800853D003FCE00013FCF00023FD000033F78
:101F3800D1005108B3005008B2004F08B1004E0854
:101F4800B0000A30A7000030A8006208A900AA0162
:101F5800A91BAA039C31B4248D3121002708D20083
:101F68002808D300D235D30DD235D30D5208243EDC
:101F7800D4000030533DD5003430540784009830E5
:101F8800553D8500003FD600013FD700023FD800ED
:101F9800033FD9005908B7005808B6005708B500DC
:101FA8005608B4008831E42021003308CD003208F7
:101FB800CC003108CB003008CA0008006208CE0007
:101FC800CF01CE35CF0DCE35CF0D34304E0784003E
:101FD80098304F3D8500003FD000013FD100023FBF
:101FE800D200033FD3005308CD005208CC0051085B
:081FF800CB005008CA000800EC
:10200C0000302100AC000030AB000030AA000030E2
:10201C00A900230822042104200403195028AD012F
:10202C00AD0AA31B25280130A035A10DA20DA30DCF
:10203C00890B1A280130A8002808AD071728013091
:10204C00A935AA0DAB0DAC0D890B26282308270248
:10205C00031D3A2822082602031D3A2821082502CE
:10206C00031D3A2820082402031C45282008A4023A
:10207C002108A53B2208A63B2308A73B29140130C5
:10208C00A336A20CA10CA00C890B46280130AD0282
:10209C00031D25282C08A3002B08A2002A08A10048
:1020AC002908A000080023008C018D018E0121005D
:1020BC000D138D1212303D009F0023001E129D1730
:1020CC000F309B009E161A302200EA005E30E900A9
:1020DC008630E800E80B7028E90B7028EA0B7028B2
:1020EC00000016309C310524903141302200E9006B
:1020FC00EE30E800E80B8028E90B802800000C305B
:10210C009C310524903141302200E900EE30E8008A
:10211C00E80B8E28E90B8E28000022009C171C145B
:10212C00210012163B001908F039043899001917D0
:10213C00981705309D00210093143B00991730002F
:10214C00941731000D08F83903388D000130300038
:10215C008D0067308C000B178B1714302200E800B1
:10216C0068082300A6000C302200E8006808230051
:10217C00A700A801230024080319C028A4012200E9
:10218C000D170130E80068082300A8073C3028022E
:10219C00031CE628A80101302200E800680823008F
:1021AC00A7073C302702031CE628A70101302200B8
:1021BC00E80068082300A607183026020318A601B9
:1021CC0090302200BC009830BD0042302100A300AA
:1021DC007030A2000030A1000030A00023002308C2
:1021EC002100A700230022082100A60023002108BB
:1021FC002100A500230020082100A4009231DB223D
:10220C009031210023082200C10021002208220065
:10221C00C000210021082200BF002100200822005C
:10222C00BE00230026082200E800E9016808C2006D
:10223C006908C300230027082200EA00EB016A08A2
:10224C00C4006B08C500230028082200EC00ED0137
:10225C006C08C6006D08C7008031AA209031003090
:10226C002300A3000030A2000030A1000030A00029
:10227C0022000D13230025080319492922008D1271
:10228C002300A501C02822008D16C0282000270895
:10229C008039A8002808AD002735A8002808B80008
:1022AC00A61B3814380803196929380A031D662936
:1022BC000030A7000030A6000030A5000030A400BC
:1022CC00A617A70171290030A7000030A600003026
:1022DC00A5000030A40023088039A8002808AD060A
:1022EC002335A8002808B900A21B39143908031992
:1022FC008D29390A031D8A290030A3000030A20061
:10230C000030A1000030A000A217A30195290030D5
:10231C00A3000030A2000030A1000030A000230870
:10232C00220421042004031DB0290030A700003032
:10233C00A6000030A5000030A4008030A6047F3039
:10234C00A7042708A3002608A2002508A10024083A
:10235C00A00008003808031DC4290030A700003075
:10236C00A6000030A5000030A4002708A300260812
:10237C00A2002508A1002408A00008003908A80024
:10238C00A901A809A909A80A0319A90A3808280744
:10239C00AA0029080318290AAB002A087F3EB200BC
:1023AC0000302B3DB3002708B1002608B0002508EB
:1023BC00AF002408AE000030A7000030A6000030AB
:1023CC00A5000030A4000030B7000030B60000308B
:1023DC00B5000030B400B9011A30390203182E2AA6
:1023EC0039080319102A0130AE35AF0DB00DB10DFF
:1023FC00890BFA290130A435A50DA60DA70D890B63
:10240C00012AB71B24140130B435B50DB60DB70D28
:10241C00890B0A2A23083102031D1E2A22083002C6
:10242C00031D1E2A21082F02031D1E2A20082E021E
:10243C00031C292A37172008AE022108AF3B2208BB
:10244C00B03B2308B13B0130A8002808B907F2299A
:10245C00310830042F042E04031D3414A61B4B2A00
:10246C000130A435A50DA60DA70D890B372AB71B76
:10247C0024140130B435B50DB60DB70D890B402AB7
:10248C00FF30B207FF30B33D342AB901B71F642ABD
:10249C00FF303405A800FF303505A900FF303605A4
:1024AC00AA007F303705AB002B082A042904280426
:1024BC00031D622A241C642AB901B90A39080319BC
:1024CC008D2A0130A4070030A53D0030A63D003018
:1024DC00A73D271C8D2A2408A8002508A90026083A
:1024EC00AA002708AB000130AC00AB37AA0CA90C32
:1024FC00A80CAC0B7B2A2B08A7002A08A6002908DD
:10250C00A5002808A4000130B2070030B33D330801
:10251C00803AA80080302802031D962AFF30320230
:10252C00031CA52AFF302000B2000030B30000309D
:10253C00A7000030A6000030A5000030A400200049
:10254C003308803AA80080302802031DAF2A0130DE
:10255C0032020318BD2A2000B201B3010030A700DB
:10256C000030A6000030A5000030A400AD01200012
:10257C003208A8002808B800381CC62AA617CA2A90
:10258C007F30A8002808A6053836A8002808A70020
:10259C002D08A8002808A7042708A3002608A200D5
:1025AC002508A1002408A000080021002708803974
:1025BC00A8002808AD002735A8002808B800A61BDD
:1025CC00381438080319F82A380A031DF52A003084
:1025DC00A7000030A6000030A5000030A400A6170C
:1025EC00A701002B0030A7000030A6000030A5008A
:1025FC000030A40023088039A8002808AD06233534
:10260C00A8002808B900A21B3914390803191C2B7F
:10261C00390A031D192B0030A3000030A200003032
:10262C00A1000030A000A217A301242B0030A300AE
:10263C000030A2000030A1000030A00023082204CA
:10264C0021042004031D3F2B0030A7000030A600FE
:10265C000030A5000030A4008030A6047F30A70411
:10266C002708A3002608A2002508A1002408A00022
:10267C0008003808031D532B0030A7000030A600BB
:10268C000030A5000030A4002708A3002608A200F3
:10269C002508A1002408A00008003908A800A901F9
:1026AC00A809A909A80A0319A90A38082807AA0021
:1026BC0029080318290AAB002A087F3EB200003013
:1026CC002B3DB3002708B1002608B0002508AF0049
:1026DC002408AE000030A7000030A6000030A50092
:1026EC000030A4000030B7000030B6000030B50058
:1026FC000030B400B9011A3039020318BD2B390867
:10270C0003199F2B0130AE35AF0DB00DB10D890BF8
:10271C00892B0130A435A50DA60DA70D890B902B87
:10272C00B71B24140130B435B50DB60DB70D890B9C
:10273C00992B23083102031DAD2B22083002031DF7
:10274C00AD2B21082F02031DAD2B20082E02031CDC
:10275C00B82B37172008AE022108AF3B2208B03B3C
:10276C002308B13B0130A8002808B907812B310898
:10277C0030042F042E04031D3414A61BDA2B013055
:10278C00A435A50DA60DA70D890BC62BB71B2414BC
:10279C000130B435B50DB60DB70D890BCF2BFF300D
:1027AC00B207FF30B33DC32BB901B71FF32BFF307A
:1027BC003405A800FF303505A900FF303605AA0006
:1027CC007F303705AB002B082A0429042804031D8D
:1027DC00F12B241CF32BB901B90A390803191C2C51
:1027EC000130A4070030A53D0030A63D0030A73DC8
:1027FC00271C1C2C2408A8002508A9002608AA00C0
:10280C002708AB000130AC00AB37AA0CA90CA80C04
:10281C00AC0B0A2C2B08A7002A08A6002908A50037
:10282C002808A4000130B2070030B33D3308803AC9
:10283C00A80080302802031D252CFF303202031C17
:10284C00342CFF302100B2000030B3000030A70060
:10285C000030A6000030A5000030A4002100330891
:10286C00803AA80080302802031D3E2C0130320231
:10287C0003184C2C2100B201B3010030A70000302A
:10288C00A6000030A5000030A400AD0121003208E4
:10289C00A8002808B800381C552CA617592C7F30D6
:1028AC00A8002808A6053836A8002808A7002D0877
:1028BC00A8002808A7042708A3002608A2002508BA
:1028CC00A1002408A00008002100EA006E306A0272
:1028DC00031C492D0A30A7000030A8006A08CE005E
:1028EC00CF014E08A2004F08A3006430A0000030B6
:1028FC00A1009C316E24943121002108AA002008EB
:10290C00A9009C31B424943121002708D000280858
:10291C00D100D035D10DD035D10D5008243ED20088
:10292C000030513DD3000030520784009830533DA5
:10293C008500003FD400013FD500023FD600033F85
:10294C00D7005708B3005608B2005508B100540818
:10295C00B0006430A7000030A8006A08D800D90184
:10296C005808A9005908AA009C31B42494312100BC
:10297C002708DA002808DB00DA35DB0DDA35DB0D49
:10298C005A08483EDC0000305B3DDD0000305C073F
:10299C00840098305D3D8500003FDE00013FDF0084
:1029AC00023FE000033FE1006108B7006008B60099
:1029BC005F08B5005E08B4008831E4209431210032
:1029CC003308E9003208E8003108E7003008E60077
:1029DC000A30A0000030A1006A08CE00CF014E08DA
:1029EC00A2004F08A3009C316E24943121002108D1
:1029FC008500200884008435850D8435850D0030D4
:102A0C0084079830853D003FD000013FD100023F44
:102A1C00D200033FD3005308B3005208B200510850
:102A2C00B1005008B0006908B7006808B600670824
:102A3C00B5006608B4008831E420943121003308D5
:102A4C00E5003208E4003108E3003008E2003F30D2
:102A5C00B3000030B2000030B1000030B0006508A7
:102A6C00B7006408B6006308B5006208B40088318A
:102A7C00E42021003308CD003208CC003108CB0013
:102A8C003008CA0008000B306A02031CD32D0A3030
:102A9C00A0000030A1006A08CE00CF014E08A200B1
:102AAC004F08A3009C316E2494312100210885002D
:102ABC00200884008435850D8435850D003084070D
:102ACC009830853D003FD000013FD100023FD2003D
:102ADC00033FD3005308B3005208B2005108B100B1
:102AEC005008B0000A30A7000030A8006A08D400D3
:102AFC00D5015408A9005508AA009C31B42494317E
:102B0C0021002708D6002808D700D635D70DD63592
:102B1C00D70D5608243ED8000030573DD900003060
:102B2C00580784009830593D8500003FDA00013F7A
:102B3C00DB00023FDC00033FDD005D08B7005C08F2
:102B4C00B6005B08B5005A08B4008831E420943113
:102B5C0021003308E9003208E8003108E7003008AA
:102B6C00E6003F30B3000030B2000030B10000305E
:102B7C00B0006908B7006808B6006708B5006608B9
:102B8C00B4008831E42021003308CD003208CC0099
:102B9C003108CB003008CA0008003F30B3000030C9
:102BAC00B2000030B1000030B0006A08CE00CF0196
:102BBC00CE35CF0DCE35CF0D00304E07840098307A
:102BCC004F3D8500003FD000013FD100023FD200B5
:102BDC00033FD3005308B7005208B6005108B500A4
:102BEC005008B4008831E42021003308CD003208AD
:102BFC00CC003108CB003008CA00080020003D088A
:102C0C008039C2004208CE003D35C2004208D000D7
:102C1C00BC1B501450080319212E500A031D1E2EE4
:102C2C000030BD000030BC000030BB000030BA00EA
:102C3C00BC17BD01292E0030BD000030BC00003097
:102C4C00BB000030BA0041088039C2004208CF00F6
:102C5C004F084E06031D4E174135C2004208CF00E7
:102C6C00C01B4F144F080319492E4F0A031D462E43
:102C7C000030C1000030C0000030BF000030BE008A
:102C8C00C017C101512E0030C1000030C00000300F
:102C9C00BF000030BE0050084F020318972E4E1F85
:102CAC005B2E8030C2004208CE065008C20042089B
:102CBC00D1004F08C2004208D0005108C20042089F
:102CCC00CF003A08C2004208D1003E08C2004208B8
:102CDC00BA005108C2004208BE003B08C2004208BC
:102CEC00D1003F08C2004208BB005108C200420894
:102CFC00BF003C08C2004208D1004008C200420894
:102D0C00BC005108C2004208C0003D08C200420885
:102D1C00D1004108C2004208BD005108C20042085F
:102D2C00C100D1015008C200C301C209C309C20AC3
:102D3C000319C30A4F084207C40043080318430A87
:102D4C00C5004508803AC60080304602031DB02EEF
:102D5C001A304402031CE42E20003D083C043B04C2
:102D6C003A040319BB2E0130BC2E0030C2004208BD
:102D7C00D1000030BD000030BC000030BB00003082
:102D8C00BA004F08C2004208D000E92E511CD42EC4
:102D9C0051360138C2004208D100D62E0310D10C96
:102DAC003A18D1170130C200BD37BC0CBB0CBA0CA1
:102DBC00C20BDA2E0130C2004208D00720004F08A7
:102DCC005002031CCC2E4E1B1C2F5008031DF72E3B
:102DDC000030BD000030BC000030BB000030BA0039
:102DEC0008003E08BA073F08BB3D4008BC3D4108FF
:102DFC00BD3D3D1CA92F511C0B2F0310D10C5108AC
:102E0C000138C2004208D1000D2F0310D10C3A1822
:102E1C00D1170130C200BD37BC0CBB0CBA0CC20BB5
:102E2C00112F0130C2004208D007A92F3D08803A6B
:102E3C00C2004108803A4202031D2E2F40083C027A
:102E4C00031D2E2F3F083B02031D2E2F3E083A0276
:102E5C000318792FFF30C200FF30C300FF30C400CD
:102E6C00FF30C5003E08C6003F08C7004008C80038
:102E7C004108C9003A09CA003B09CB003C09CC0007
:102E8C003D09CD00CA0A0319CB0A0319CC0A031950
:102E9C00CD0A4A08C6074B08C73D4C08C83D4D082B
:102EAC00C93D4608C2074708C33D4808C43D490808
:102EBC00C53D4508BD004408BC004308BB004208A2
:102ECC00BA008030C2004208CE06D109D10A51089E
:102EDC00031D812F0130BA070030BB3D0030BC3DD3
:102EEC000030BD3D812F3E08BA023F08BB3B400875
:102EFC00BC3B4108BD3B3D083C043B043A04031D6C
:102F0C00A72F5108031DA72F0030BD000030BC00B7
:102F1C000030BB000030BA0008000130BA35BB0DE0
:102F2C00BC0DBD0D890B942FD11B3A14511CA02F35
:102F3C000314A12F0310D10D50080319A72F013032
:102F4C00D002BC1F932FCF01D11FB42F51087F3952
:102F5C00031DB22F3A1CB42FCF01CF0A4F0803190F
:102F6C00E02F0130BA070030BB3D0030BC3D0030D3
:102F7C00BD3D3D1CE02F3A08C2003B08C3003C0895
:102F8C00C4003D08C5000130C600C537C40CC30CD5
:102F9C00C20CC60BCB2F4508BD004408BC0043082F
:102FAC00BB004208BA00500A0319E02F0130C200DE
:102FBC004208D007500A031D5008031DF02F0030A3
:102FCC00BD000030BC000030BB000030BA0050081F
:102FDC000319CE01501CF42FBC17F82F7F30C20000
:102FEC004208BC055036C2004208BD00CE1F080086
:102FFC00BD1708000034003480343F34CD34CC3459
:10300C00CC343D340A34D73423343C346F3412344A
:10301C0083343A341734B734D1343834AC34C534FF
:10302C0027343734BD343734863435349534BF3493
:10303C00D63433347734CC342B3432345F3470346C
:10304C0089343034FF34E634DB342E340834E53440
:10305C003C341E3460344234A2340D340034003419
:10306C0080343F3400340034203441340034003494
:10307C00C8344234003400347A344434003440349C
:10308C001C34463400345034C334473400342434B4
:10309C00743449348034963418344B342034BC3472
:1030AC00BE344C3428346B346E344E34F934023420
:1030BC0015345034EC347834AD346034CA34F234D2
:1030CC004934713401340034003400340A3400348F
:1030DC00003400346434003400340034E8340334F5
:1030EC00003400341034273400340034A0348634D7
:1030FC0001340034403442340F340034803496347C
:10310C00983400340034E134F53405340034CA34D6
:10311C009A343B34203446345234453451343A34A6
:10312C002034253437342E3435346634203420346E
:10313C0020342034203425343034323464343A345E
:10314C0025343034323464343A3425343034323427
:0C315C006434203420342034203400344B
:1037F6002100230822042104200403190800803034
:10380600A30608002100A000200823009A0020003B
:10381600101E0A2C101208002100A401A501201C6C
:10382600182C2208A4072308A53D0130A235A30DB4
:10383600890B192C0130A136A00C890B1E2C2008EF
:103846002104031D122C2508A1002408A00008004D
:103856002100310830042F042E040319652CB7010A
:10386600B70AB11B422C0130AE35AF0DB00DB10D0C
:10387600890B372C0130B6003608B707342C3108CF
:103886003502031D502C30083402031D502C2F081E
:103896003302031D502C2E083202031C5A2C2E080C
:1038A600B2022F08B33B3008B43B3108B53B0130B8
:1038B600B136B00CAF0CAE0C890B5B2C0130B702E5
:1038C600031D422C3508B1003408B0003308AF00A0
:1038D6003208AE0008002100A601A31F792CA20918
:1038E600A309A20A0319A30AA601A60AA11F802CEE
:1038F600A009A109A00A0319A10A20082104031995
:10390600A72CA501A50AA11B922C0130A035A10D5B
:10391600890B892C0130A4002408A507862C2108D0
:103926002302031D982C20082202031C9E2C20082B
:10393600A2022108A33B0130A136A00C890B9F2CC3
:103946000130A502031D922C26080319AF2CA209EB
:10395600A309A20A0319A30A2308A1002208A000AA
:1039660008002100AD01A81FBF2CA709A809A70AB6
:103976000319A80AAD01AD0AAA1FCA2CA909AA09EA
:10398600A90A0319AA0A0130AB002B08AD06AE013D
:10399600AF01270828040319F92CAC01AC0AA81BAF
:1039A600DE2C0130A735A80D890BD52C0130AB00D4
:1039B6002B08AC07D22C0130AE35AF0D890BDF2CAE
:1039C60028082A02031DE92C27082902031CF02CCB
:1039D6002708A9022808AA3B2E140130A836A70CEE
:1039E600890BF12C0130AC02031DDE2C2D080319C6
:1039F600012DAE09AF09AE0A0319AF0A2F08A800B8
:103A06002E08A700080021006308E7006408E80004
:103A16006508E9006608EA000310690D6A0DEB0007
:103A26006B08ED006D08031D212D0030E600003007
:103A3600E5000030E4000030E30008006308E7001A
:103A46006408E8006508E9006608EA001F30EA36FF
:103A5600E90CE80CE70C890B2A2D6708EB006B08CC
:103A6600EC00E517FF30E305FF30E405FF30E50520
:103A76000030E6059630ED02ED1F5D2D6D08803AAB
:103A8600973E03184F2D0030E6000030E500003069
:103A9600E4000030E30008000130E636E50CE40CF3
:103AA600E30C890B502D0130E7006708ED07031979
:103AB600762D4F2D20306D02031C732D0030E6004D
:103AC6000030E5000030E4000030E300080001307B
:103AD600E335E40DE50DE60D890B6B2D0130ED02A6
:103AE6006D08031D6A2D6C0803190800E309E40933
:103AF600E509E609E30A0319E40A0319E50A0319C5
:103B0600E60A0800F8007808031DF31F9A2D7009CD
:103B1600FA007109FB007209FC007309FD00FA0A3C
:103B26000319FB0A0319FC0A0319FD0AA22D7308DF
:103B3600FD007208FC007108FB007008FA007308AB
:103B4600720471047004031DB12D0030F3000030BF
:103B5600F2000030F1000030F00008009630F4006A
:103B66007408F900FE307D050319D82D0130F400E4
:103B76007408F9070130FD36FC0CFB0CFA0C890BB6
:103B8600BE2DB52D0130F4007408F9070130FA078F
:103B96000030FB3D0030FC3D0030FD3D0130FD3680
:103BA600FC0CFB0CFA0C890BD22DFF307D0503199A
:103BB600E62DC52D0130F9020130FA35FB0DFC0D5D
:103BC600FD0D890BE02DFC1BEC2D0230790203184C
:103BD600DD2D7918F62DFF30FA05FF30FB057F3015
:103BE600FC05FF30FD050310F90C7908F400F5011A
:103BF600F601F7011830F435F50DF60DF70D890BC2
:103C0600FE2D7408FA047508FB047608FC04770890
:103C1600FD047808031DF31F112EFD177D08F30020
:103C26007C08F2007B08F1007A08F0000800210009
:103C3600A8002808031DA31F302E2009AA00210969
:103C4600AB002209AC002309AD00AA0A0319AB0A8E
:103C56000319AC0A0319AD0A382E2308AD00220851
:103C6600AC002108AB002008AA0023082204210486
:103C76002004031D472E0030A3000030A2000030B0
:103C8600A1000030A00008009630A4002408A90076
:103C9600FE302D0503196E2E0130A4002408A90755
:103CA6000130AD36AC0CAB0CAA0C890B542E4B2E46
:103CB6000130A4002408A9070130AA070030AB3D53
:103CC6000030AC3D0030AD3D0130AD36AC0CAB0C38
:103CD600AA0C890B682EFF302D0503197C2E5B2E4E
:103CE6000130A9020130AA35AB0DAC0DAD0D890B23
:103CF600762EAC1B822E023029020318732E291849
:103D06008C2EFF30AA05FF30AB057F30AC05FF30A7
:103D1600AD050310A90C2908A400A501A601A70159
:103D26001830A435A50DA60DA70D890B942E2408D1
:103D3600AA042508AB042608AC042708AD04280805
:103D4600031DA31FA72EAD172D08A3002C08A20044
:103D56002B08A1002A08A000080000302100200539
:103D6600A80000302105A90080302205AA007F3076
:103D76002305AB002B082A0429042804031DCB2E97
:103D86000030A3000030A2000030A1000030A000E7
:103D960000302405A80000302505A900803026053E
:103DA600AA007F302705AB002B082A042904280423
:103DB600031DE52E0030A7000030A6000030A50048
:103DC6000030A400A31F0E2F0030A8000030A90069
:103DD6000030AA008030AB002009AC002109AD00FC
:103DE6002209AE002309AF00AC0A0319AD0A031974
:103DF600AE0A0319AF0A2C08A8072D08A93D2E08FC
:103E0600AA3D2F08AB3D2B08A3002A08A2002908CB
:103E1600A1002808A000A71F372F0030A8000030F7
:103E2600A9000030AA008030AB002409AC002509A7
:103E3600AD002609AE002709AF00AC0A0319AD0A8A
:103E46000319AE0A0319AF0A2C08A8072D08A93DC5
:103E56002E08AA3D2F08AB3D2B08A7002A08A6006E
:103E66002908A5002808A4008030A3068030A706EC
:103E760027082302031D080026082202031D080046
:103E860025082102031D080024082002080021003D
:103E96002008A6002108A7002208A8000310270D65
:103EA600280DA9002908AF002F08031D632F003035
:103EB600A3000030A2000030A1000030A0000800DE
:103EC6002308A6002408A7002508A8000310270D2C
:103ED600280DA9002908AE002E08031D7B2F0030EF
:103EE600A3000030A2000030A1000030A0000800AE
:103EF600A117FF30A005FF30A1050030A205A417C9
:103F0600FF30A305FF30A4050030A5050030AD0045
:103F16000030AC000030AB000030AA007F30AF02AA
:103F260098302E07A6002608AF021830A6002608ED
:103F3600AE000130AA35AB0DAC0DAD0D890B9D2F32
:103F460025082202031DAD2F24082102031DAD2FD3
:103F560023082002031CB62F2308A0022408A13B35
:103F66002508A23B2A140130A035A10DA20D890B0C
:103F7600B72F0130AE02031D9C2FAF1FDE2F2F0877
:103F8600803A973E0318D02F0030A3000030A200DD
:103F96000030A1000030A00008000130AD36AC0CA6
:103FA600AB0CAA0C890BD12F0130A6002608AF074F
:103FB6000319F72FD02F18302F02031CF42F0030CF
:103FC600A3000030A2000030A1000030A0000800CD
:103FD6000130AA35AB0DAC0DAD0D890BEC2F0130C0
:103FE600AF022F08031DEB2F2D08A3002C08A200FB
:0A3FF6002B08A1002A08A000080013
:020000040001F9
:06000E00DF3F7F3E9F3F33
:00000001FF
