:040000008031E22841
:100008007E14803120007F08BB00931CC528931004
:100018003B000F08F0001008F1001108F200F3018E
:1000280000309B31F623803173082000A30072084A
:10003800A2007108A1007008A0004B30A7009830FA
:10004800A6009630A5008030A4009E31712680312C
:1000580020002308BF002208BE002108BD00200898
:10006800BC003F08F3003E08F2003D08F1003C08E0
:10007800F0004330F7000230F6000030F5000030A1
:10008800F4009D3121258031031878284230F3008F
:10009800DC30F2000030F1000030F00020003F08B2
:1000A800F7003E08F6003D08F5003C08F4009D31D5
:1000B800212580310318782801302000CE07003030
:1000C800CF3D4E1899284F08803ABA0080303A023E
:1000D800031D702801304E02031C992801302000AE
:1000E800CA070030CB3D992801302000CA070030EC
:1000F800CB3D3F08F3003E08F2003D08F1003C0804
:10010800F0004508F7004408F6004308F5004208E7
:10011800F4008531E225803173082000C50072089B
:10012800C4007108C3007008C20020004B08803A60
:10013800BA0080303A02031DA3283C304A02031C4F
:10014800DD282000CA01CB014508C9004408C800C1
:100158004308C7004208C6000130BA003A08220026
:10016800EC0000302000C5000030C4000030C3009F
:100178000030C2004F08CD004E08CC00CE01CF01A0
:10018800DD28121EDD281212003030001302B130B3
:1001980003191202031CD72800301302B6300319C2
:1001A8001202031CDD2801302000BA003A082200A0
:1001B800ED0020003B08FF007E1009008031E42894
:1001C80042308400003085000E308831042022003F
:1001D800EC01ED017E1020009331D82B2100E000C6
:1001E800E01F3D2AE009E00A6008803A123E031C3D
:1001F800B4290A30A6000030A7006008A200A301B5
:10020800A21BA3036430A0000030A1009A3184220D
:10021800803121002108A9002008A8009B31212352
:10022800803121002608CC002708CD00CC35CD0D23
:10023800CC35CD0D4C08243ECE0000304D3DCF00CE
:1002480000304E07840098304F3D8500003FD000B5
:10025800013FD100023FD200033FD3005308B10051
:100268005208B0005108AF005008AE006430A60034
:100278000030A7006008A800A901A81BA9039B31AA
:100288002123803121002608D4002708D500D43541
:10029800D50DD435D50D5408483ED6000030553D0F
:1002A800D7000030560784009830573D8500003F3E
:1002B800D800013FD900023FDA00033FDB005B08AA
:1002C800B5005A08B4005908B3005808B20095316F
:1002D800A725803121003108DF003008DE002F0813
:1002E800DD002E08DC000A30A0000030A100600804
:1002F800A200A301A21BA3039A318422803121000A
:1003080021088500200884008435850D8435850DF5
:10031800003084079830853D003FCC00013FCD0078
:10032800023FCE00033FCF004F08B1004E08B00097
:100338004D08AF004C08AE005F08B5005E08B40079
:100348005D08B3005C08B2009531A725210031088B
:10035800CB003008CA002F08C9002E08C8000800C2
:100368006008803A753E031C1F2A0A30A00000303E
:10037800A1006008A200A301A21BA3039A31842252
:100388008031210021088500200884008435850DEE
:100398008435850D003084079830853D003FCC00BA
:1003A800013FCD00023FCE00033FCF004F08B10010
:1003B8004E08B0004D08AF004C08AE000A30A60049
:1003C8000030A7006008A800A901A81BA9039B3159
:1003D8002123803121002608D0002708D100D035FC
:1003E800D10DD035D10D5008243ED2000030513DFA
:1003F800D3000030520784009830533D8500003FF9
:10040800D400013FD500023FD600033FD70057086C
:10041800B5005608B4005508B3005408B200953129
:10042800A72521003108CB003008CA002F08C900D1
:100438002E08C80008006008CC00CD01CC35CD0DD1
:10044800CC35CD0D00304C07840098304D3D8500EB
:10045800003FCE00013FCF00023FD000033FD10054
:100468005108CB005008CA004F08C9004E08C80000
:1004780008006008803A123E031CF92A0A30A600D8
:100488000030A7006008A200A301A21BA3036430E8
:10049800A0000030A1009A31842280312100210877
:1004A800A9002008A8009B312123803121002608BB
:1004B800CC002708CD00CC35CD0DCC35CD0D4C0862
:1004C800243ECE0000304D3DCF0034304E0784002E
:1004D80098304F3D8500003FD000013FD100023FDA
:1004E800D200033FD3005308B1005208B0005108AE
:1004F800AF005008AE006430A6000030A7006008C6
:10050800A800A901A81BA9039B3121238031210040
:100518002608D4002708D500D435D50DD435D50DF7
:100528005408483ED6000030553DD70034305607B1
:1005380084009830573D8500003FD800013FD9001E
:10054800023FDA00033FDB005B08B5005A08B4003D
:100558005908B3005808B2009531A7258031210009
:100568003108DF003008DE002F08DD002E08DC002F
:100578000A30A0000030A1006008A200A301A21B5D
:10058800A3039A31842280312100210885002008A4
:1005980084008435850D8435850D34308407983082
:1005A800853D003FCC00013FCD00023FCE00033F18
:1005B800CF004F08B1004E08B0004D08AF004C08FE
:1005C800AE005F08B5005E08B4005D08B3005C08C3
:1005D800B2009531A72521003108CB003008CA00A8
:1005E8002F08C9002E08C80008006008803A753E28
:1005F800031C642B0A30A0000030A1006008A20090
:10060800A301A21BA3039A3184228031210021086F
:100618008500200884008435850D8435850D3430A7
:1006280084079830853D003FCC00013FCD00023F54
:10063800CE00033FCF004F08B1004E08B0004D0870
:10064800AF004C08AE000A30A6000030A7006008D2
:10065800A800A901A81BA9039B31212380312100EF
:100668002608D0002708D100D035D10DD035D10DBE
:100678005008243ED2000030513DD3003430520798
:1006880084009830533D8500003FD400013FD500D9
:10069800023FD600033FD7005708B5005608B400FC
:1006A8005508B3005408B2009531A7252100310838
:1006B800CB003008CA002F08C9002E08C80008005F
:1006C8006008CC00CD01CC35CD0DCC35CD0D343006
:1006D8004C07840098304D3D8500003FCE00013F17
:1006E800CF00023FD000033FD1005108CB00500893
:1006F800CA004F08C9004E08C80008002200230895
:100708008039A80028082100E90022002335A80024
:1007180028082100EB002200A21F942B21006B1453
:1007280021006B080319A82B6B0A031DA42B0030AA
:100738002200A3000030A2000030A1000030A00079
:100748002200A217A301B12B00302200A300003021
:10075800A2000030A1000030A00027088039A800BE
:1007680028082100EA006A086906031D69172200A3
:100778002735A80028082100EA002200A61FC62B5A
:1007880021006A1421006A080319DA2B6A0A031D7A
:10079800D62B00302200A7000030A6000030A500AC
:1007A8000030A4002200A617A701E32B0030220086
:1007B800A7000030A6000030A5000030A4002100EA
:1007C8006B086A020318432C691FF02B8030220043
:1007D800A80028082100E9066B082200A8002808BC
:1007E8002100EC006A082200A80028082100EB007C
:1007F8006C082200A80028082100EA00220020082E
:10080800A80028082100EC0022002408A8002808D5
:10081800A00021006C082200A8002808A4002108D4
:10082800A80028082100EC0022002508A8002808B4
:10083800A10021006C082200A8002808A5002208B1
:10084800A80028082100EC0022002608A800280893
:10085800A20021006C082200A8002808A60023088E
:10086800A80028082100EC0022002708A800280872
:10087800A30021006C082200A8002808A700210076
:10088800EC016B082200A800A901A809A909A80A77
:100898000319A90A21006A0822002807AA002908C2
:1008A8000318290AAB002B08803AAC0080302C02D0
:1008B800031D602C1A302A02031CA02C22002308D6
:1008C80022042104200403196B2C01306C2C003005
:1008D800A80028082100EC0000302200A300003006
:1008E800A2000030A1000030A00021006A08220008
:1008F800A80028082100EB00A52C6C1C8B2C6C365A
:1009080001382200A80028082100EC008D2C0310D3
:10091800EC0C2200201C922C2100EC170130220044
:10092800A800A337A20CA10CA00CA80B952C013091
:10093800A80028082100EB0721006A086B02031CA5
:10094800812C691BE22C6B08031DB42C003022009B
:10095800A3000030A2000030A1000030A000080071
:1009680022002408A0072508A13D2608A23D270843
:10097800A33D231C7A2D21006C1CCC2C0310EC0CFD
:100988006C0801382200A80028082100EC00CE2CB1
:100998000310EC0C2200201CD32C2100EC17013092
:1009A8002200A800A337A20CA10CA00CA80BD62CDF
:1009B8000130A80028082100EB077A2D220023081F
:1009C800803AA8002708803A2802031DF52C26083B
:1009D8002202031DF52C25082102031DF52C2408ED
:1009E80020020318422DFF30A800FF30A900FF3075
:1009F800AA00FF30AB002408AC002508AD0026088B
:100A0800AE002708AF002009B0002109B100220973
:100A1800B2002309B300B00A0319B10A0319B20AD4
:100A28000319B30A3008AC073108AD3D3208AE3DB2
:100A38003308AF3D2C08A8072D08A93D2E08AA3D6C
:100A48002F08AB3D2B08A3002A08A2002908A10003
:100A58002808A0008030A80028082100E906EC0931
:100A6800EC0A6C08031D4A2D01302200A007003053
:100A7800A13D0030A23D0030A33D4A2D2408A0022C
:100A88002508A13B2608A23B2708A33B22002308F0
:100A9800220421042004031D772D21006C08031D66
:100AA800772D00302200A3000030A2000030A10002
:100AB8000030A00008000130A035A10DA20DA30D43
:100AC800890B602D2100EC1F6B2D220020142100C2
:100AD8006C1C702D0314712D0310EC0D6B08031999
:100AE800772D0130EB022200A21F5F2D2100EA01C1
:100AF800EC1F882D6C087F39031D862D2200201CD1
:100B0800882D2100EA01EA0A21006A080319B92D93
:100B180001302200A0070030A13D0030A23D003086
:100B2800A33D231CB92D2008A8002108A9002208EC
:100B3800AA002308AB000130AC00AB37AA0CA90C03
:100B4800A80CAC0BA12D2B08A3002A08A200290889
:100B5800A1002808A00021006B0A0319B92D013053
:100B68002200A80028082100EB0721006B0A031DBA
:100B78006B08031DCC2D00302200A3000030A2001A
:100B88000030A1000030A00021006B080319E90122
:100B98006B1CD12D2200A217D62D7F302200A80071
:100BA8002808A20521006B362200A8002808A30007
:100BB8002100E91F08002200A317080073088039E4
:100BC8002000A0002008F8007335A0002008FA00D3
:100BD800F21B7A147A080319FF2D7A0A031DFC2DDB
:100BE8000030F3000030F2000030F1000030F00077
:100BF800F217F301072E0030F3000030F200003046
:100C0800F1000030F00077088039A0002008F900D2
:100C180079087806031D78177735A0002008F900B1
:100C2800F61B791479080319272E790A031D242E37
:100C38000030F7000030F6000030F5000030F40016
:100C4800F617F7012F2E0030F7000030F6000030BD
:100C5800F5000030F4007A0879020318752E781F21
:100C6800392E8030A0002008F8067A08A000200855
:100C7800FB007908A0002008FA007B08A0002008E3
:100C8800F9007008A0002008FB007408A0002008E4
:100C9800F0007B08A0002008F4007108A0002008DC
:100CA800FB007508A0002008F1007B08A0002008C0
:100CB800F5007208A0002008FB007608A0002008B4
:100CC800F2007B08A0002008F6007308A0002008A6
:100CD800FB007708A0002008F3007B08A00020088C
:100CE800F700FB017A08A000A101A009A109A00A48
:100CF8000319A10A79082007A20021080318210A6C
:100D0800A3002308803AA40080302402031D8E2EFD
:100D18001A302202031CC42E730872047104700472
:100D28000319982E0130992E00302000A0002008C9
:100D3800FB000030F3000030F2000030F10000301A
:100D4800F0007908A0002008FA00C82E7B1CB32EFA
:100D58007B3601382000A0002008FB00B52E0310C8
:100D6800FB0C7018FB1701302000A000F337F20CC1
:100D7800F10CF00CA00BBA2E0130A0002008FA07E5
:100D880079087A02031CAA2E781BFD2E7A08031D07
:100D9800D62E0030F3000030F2000030F1000030B1
:100DA800F00008007408F0077508F13D7608F23D78
:100DB8007708F33D731C8B2F7B1CEB2E0310FB0C69
:100DC8007B0801382000A0002008FB00ED2E03104E
:100DD800FB0C7018FB1701302000A000F337F20C51
:100DE800F10CF00CA00BF22E0130A0002008FA073D
:100DF8008B2F7308803A2000A0007708803A2002E1
:100E0800031D102F76087202031D102F750871023A
:100E1800031D102F7408700203185B2FFF30A00009
:100E2800FF30A100FF30A200FF30A3007408A40027
:100E38007508A5007608A6007708A7007009A8001D
:100E48007109A9007209AA007309AB00A80A03195D
:100E5800A90A0319AA0A0319AB0A2808A40729082A
:100E6800A53D2A08A63D2B08A73D2408A00725086C
:100E7800A13D2608A23D2708A33D2308F300220828
:100E8800F2002108F1002008F0008030A0002008BE
:100E9800F806FB09FB0A7B08031D632F0130F007E6
:100EA8000030F13D0030F23D0030F33D632F74080F
:100EB800F0027508F13B7608F23B7708F33B7308BC
:100EC800720471047004031D892F7B08031D892F88
:100ED8000030F3000030F2000030F1000030F00084
:100EE80008000130F035F10DF20DF30D890B762F66
:100EF800FB1B70147B1C822F0314832F0310FB0D24
:100F08007A080319892F0130FA02F21F752FF901A7
:100F1800FB1F962F7B087F39031D942F701C962F7B
:100F2800F901F90A79080319C32F0130F0070030D5
:100F3800F13D0030F23D0030F33D731CC32F7008C3
:100F48002000A0007108A1007208A2007308A30085
:100F58000130A400A337A20CA10CA00CA40BAE2F47
:100F68002308F3002208F2002108F1002008F0000D
:100F78007A0A0319C32F0130A0002008FA077A0A59
:100F8800031D7A08031DD32F0030F3000030F20050
:100F98000030F1000030F0007A080319F8017A1CDB
:100FA800D72FF217DC2F7F302000A0002008F20591
:100FB8007A362000A0002008F300F81F0800F31775
:100FC80008002000C100C0013A3041020318F22F86
:100FD80030304102031CF22FC001C00A400C080047
:100FE8002000C000400823009A002000101EF92F9E
:040FF80010120800CB
:10100800640080010131890B052800342100230880
:10101800220421042004031908008030A3060800D4
:1010280021002008A8002108A9002208AA002308F6
:10103800AB0003102A0D2B0DAC002C08B2003208AF
:10104800031D2F280030A3000030A2000030A100AB
:101058000030A00008002408A8002508A9002608D8
:10106800AA002708AB0003102A0D2B0DAC002C0892
:10107800B1003108031D49280030A3000030A20048
:101088000030A1000030A0000800A217FF30A00522
:10109800FF30A105FF30A2050030A305A617FF30D9
:1010A800A405FF30A505FF30A6050030A7050030D0
:1010B800B0000030AF000030AE000030AD007F302F
:1010C800B202A0303107A8002808B2022030A800D8
:1010D8002808B1000130AD35AE0DAF0DB00D890B4C
:1010E8006F2827082302031D832826082202031DD0
:1010F800832825082102031D832824082002031CB5
:101108008E282408A0022508A13B2608A23B270810
:10111800A33B2D140130A035A10DA20DA30D890B01
:101128008F280130B102031D6E28B21FB72832087C
:10113800803A9F3E0318A9280030A3000030A2007F
:101148000030A1000030A00008000130B036AF0C1C
:10115800AE0CAD0C890BAA280130A8002808B207EC
:101168000319D028A92820303202031CCD280030CA
:10117800A3000030A2000030A1000030A000080049
:101188000130AD35AE0DAF0DB00D890BC52801305E
:10119800B2023208031DC4283008A3002F08A20099
:1011A8002E08A1002D08A00008003E302200CC0027
:1011B8004C08D60022003D08CD003C08CC00BC0AF3
:1011C8000319BD0A4C0884004D0885000008CE00AC
:1011D8004E08EB006B080319080025306B0603194D
:1011E800FA286B088731F4278831DE282200E301CA
:1011F800E401E101E201052961150130BC07003075
:10120800BD3D3C0884003D0885000008303A0319BC
:1012180000290E293C0884003D0885000008873114
:10122800E5278831031C50292200E301E4010A3034
:101238002100A0000030A100220064082100A300C2
:10124800220063082100A2009931F521883121008C
:1012580021082200E400210020082200E3003C08C5
:1012680084003D0885000008D03ECC00FF300318FC
:101278000030CD004C08E3074D08E43D0130BC07C1
:101288000030BD3D3C0884003D08850000088731DA
:10129800E527883103181B2922003C0884003D08F3
:1012A800850012002E3A031D962962170130BC07EB
:1012B8000030BD3DE901EA013C0884003D08850095
:1012C80000088731E5278831031C9D2922003C0846
:1012D80084003D0885000008CC00CD016A08210083
:1012E800A100220069082100A0000A30A2000030F5
:1012F800A3009931F521883122004C0821002007EC
:101308002200CE004D082100213D2200CF004E08CA
:10131800D03EE900FF304F3DEA000130BC07003005
:10132800BD3D60292200E901EA0162169D29621586
:10133800B82922003D08CD003C08CC00BC0A03199E
:10134800BD0A4C0884004D0885000008EB00003AEF
:101358000319FF2F643A0319B829023A03199B2984
:101368000F3A0319B829DE2800306105CC00073090
:101378006205CD004C084D040319912E621EC82940
:101388000630E9000030EA00560886000130870080
:10139800403FE500413FE600423FE700433FE800A9
:1013A8000430CC004C08D60768082100A3002200AE
:1013B80067082100A200220066082100A10022007F
:1013C80065082100A0000030A7000030A60000300A
:1013D800A5000030A40090311520883103181B2A7D
:1013E800220068082100A300220067082100A2004B
:1013F800220066082100A100220065082100A00043
:1014080088310A208831210023082200E8002100C1
:1014180022082200E700210021082200E60021001E
:1014280020082200E5000330E1040030E204220035
:10143800DF01E00168086704660465040319F92AF6
:101448006508CC006608CD006708CE006808CF00A4
:1014580003104E0D4F0D823EDF00FF3003180030A1
:10146800E000FF30DF07FF30E03D03302100A0003F
:101478000030A100220060082100A30022005F08BC
:101488002100A2009931F52188312100210822008C
:10149800E000210020082200DF000A302100A60019
:1014A8000030A700220060082100A90022005F0880
:1014B8002100A8009B312123883121002708220020
:1014C800E000210026082200DF00E01F6F2AFF301D
:1014D800DF07FF30E03D5F03FF3A8031F2208831BB
:1014E80021004B082200DA0021004A082200D90016
:1014F800210049082200D800210048082200D7000E
:1015080068082100B100220067082100B00022000D
:1015180066082100AF00220065082100AE00220005
:101528005A082100B500220059082100B400220001
:1015380058082100B300220057082100B200953155
:10154800A7258831210031082200DA00210030085F
:101558002200D90021002F082200D80021002E08DF
:101568002200D7005A082100A300220059082100B0
:10157800A200220058082100A100220057082100DB
:10158800A0003F30A7008030A6000030A500003042
:10159800A4009031152088310318D72AFF30220083
:1015A800DF07FF30F82A22005A082100A300220092
:1015B80059082100A200220058082100A100220099
:1015C80057082100A0004130A7002030A6000030B5
:1015D800A5000030A400903115208831031CF92A99
:1015E80001302200DF070030E03D22006A08803A1F
:1015F800CC0080304C02031D032B0D306902031808
:101608002E2B2200690892313E22883121004B0896
:101618002200A30021004A082200A2002100490854
:101628002200A100210048082200A0006808A700A5
:101638006708A6006608A5006508A4008331822310
:10164800883122002308E8002208E7002108E60084
:101658002008E50022006008803ACC0080304C0267
:10166800031D382B0A305F020318662B2200680816
:101678006704660465040319D92B68082100E4008F
:10168800220067082100E300220066082100E2002A
:10169800220065082100E1009B3177238831210071
:1016A8006408630462046104031DD92B22006008E6
:1016B800803ACC0080304C02031D642B02305F025C
:1016C800031CD92B22005A082100A3002200590824
:1016D8002100A200220058082100A100220057087A
:1016E8002100A0004030A7008930A6007030A50076
:1016F8005F30A4009031152088310318852BF7300E
:10170800862BF8302200DF07FF30E03D5F0880318C
:10171800F220883121004B082200DA0021004A0813
:101728002200D900210049082200D80021004808D9
:101738002200D70068082100A300220067082100C2
:10174800A200220066082100A100220065082100ED
:10175800A00022005A082100A700220059082100F1
:10176800A600220058082100A500220057082100E1
:10177800A400883114208831210023082200DE00CB
:10178800210022082200DD00210021082200DC00BF
:10179800210020082200DB000030E8000030E700CC
:1017A8000030E6000030E500352C220068082100F2
:1017B800E400220067082100E300220066082100F7
:1017C800E200220065082100E1009B31772388317F
:1017D800210064082200DE00210063082200DD00E9
:1017E800210062082200DC00210061082200DB00E1
:1017F8005E082100B10022005D082100B00022002F
:101808005C082100AF0022005B082100AE00003018
:101818009C318B248831210031082200B700210037
:1018280030082200B60021002F082200B500210050
:101838002E082200B4006808BB006708BA006608D2
:10184800B9006508B8009931D621883122003708D7
:10185800E8003608E7003508E6003408E500DF014F
:10186800E001EB01EB0A0A306B060319682C6B08E0
:10187800CC00CD01CC35CD0DCC35CD0D68304C0725
:10188800840098304D3D8500003FCE00013FCF00D9
:10189800023FD000033FD10051085E02031D5E2CB9
:1018A80050085D02031D5E2C4F085C02031D5E2C70
:1018B8004E085B02031C682C0130CC004C08EB0777
:1018C8000A306B06031D3B2C6B08CC00CD01CC1BEA
:1018D800CD0369084C07CE006A084D3DCF005F086C
:1018E8004E07D00060084F3DD1005008E302510870
:1018F800E43B69086A040319852CFF30E307FF30CD
:10190800E43D03306105CC0000306205CD004C0891
:101918004D040319932CFF30E307FF30E43D611DAC
:10192800C22C03306105CC0000306205CD004C08A4
:101938004D040319A32C2D308731F4278831220058
:101948006408803ACC0080304C02031DAD2C013075
:101958006302031CDD2C30308731F4278831FF30D7
:101968002200E307FF30E43DA32C20308731F42721
:101978008831FF302200E307FF30E43D220064088D
:10198800803ACC0080304C02031DCC2C013063021D
:101998000318B92C033022006105CC000030620521
:1019A800CD004C084D040319DD2C2D308731F42768
:1019B8008831FF302200CC004C08EB076B0A031972
:1019C800572D22006B08CC00CD01CC35CD0DCC3580
:1019D800CD0D68304C07840098304D3D8500003FA0
:1019E8002100A000013FA100023FA200033FA30085
:1019F80022005E082100A70022005D082100A60041
:101A080022005C082100A50022005B082100A40038
:101A18009A31CC228831210023082200DA002100E3
:101A280022082200D900210021082200D800210024
:101A380020082200D70000302100B0000030AF009D
:101A48000030AE000A30AD0022005A082100B40070
:101A5800220059082100B300220058082100B200D2
:101A6800220057082100B1009A313F228831210015
:101A780030082200DA0021002F082200D9002100B6
:101A88002E082200D80021002D082200D700570870
:101A9800303EDA2C30308731F4278831FF3022008D
:101AA800DF07FF30E03D6008803ACC0080304C0210
:101AB800031D602D01305F0203184E2D22006A08B5
:101AC800803ACC0080304C02031D6C2D093069022D
:101AD800031C712D08302200732D22006908CC00E8
:101AE8004C08EB006B08CC00CD01CC1BCD034C0897
:101AF800E9024D08EA3B6B080319862D2E30873121
:101B0800F427883122006B088031F22088312100C7
:101B18004B082200D50021004A082200D4002100E9
:101B280049082200D300210048082200D2005508A5
:101B38002100B500220054082100B40022005308F7
:101B48002100B300220052082100B20022006808D8
:101B58002100B100220067082100B00022006608B9
:101B68002100AF00220065082100AE009531A725AD
:101B7800883121003108E4003008E3002F08E20032
:101B88002E08E1009B317723883121006408220068
:101B9800DE00210063082200DD0021006208220027
:101BA800DC00210061082200DB00FF30CC004C087B
:101BB800EB076B0A03198C2E6B08CC00CD01CC35D2
:101BC800CD0DCC35CD0D68304C07840098304D3D97
:101BD8008500003F2100A000013FA100023FA200B4
:101BE800033FA30022005E082100A70022005D0831
:101BF8002100A60022005C082100A50022005B0845
:101C08002100A4009A31CC22883121002308220027
:101C1800DA00210022082200D90021002108220030
:101C2800D800210020082200D70000302100B00091
:101C38000030AF000030AE000A30AD0022005A0874
:101C48002100B400220059082100B30022005808DE
:101C58002100B200220057082100B1009A313F222A
:101C68008831210030082200DA0021002F082200E4
:101C7800D90021002E082200D80021002D082200BA
:101C8800D7005708303E8731F427883122006B0887
:101C9800CC00CD01CC35CD0DCC35CD0D68304C0701
:101CA800840098304D3D8500003F2100AD00013F84
:101CB800AE00023FAF00033FB00022005E082100E3
:101CC800B40022005D082100B30022005C08210056
:101CD800B20022005B082100B1009A313F2288310E
:101CE800210030082200DE0021002F082200DD003C
:101CF80021002E082200DC0021002D08D72D3030CD
:101D08008731F4278831FF302200E907FF30EA3DA8
:101D180069086A040319DE28832E560886000130F4
:101D28008700403FCC00413FCD004C08DB004D0808
:101D3800DC00890D893B8909DD00DE000230CC001A
:101D48004C08D607DE1FB72E0330E1040030E2044A
:101D5800DB09DC09DD09DE09DB0A0319DC0A0319E2
:101D6800DD0A0319DE0A69086A04031DC52E5E0828
:101D78005D045C045B04031DC52E0130E9070030D7
:101D8800EA3DEB01EB0A0A306B060319F82E6B08E3
:101D9800CC00CD01CC35CD0DCC35CD0D68304C0700
:101DA800840098304D3D8500003FCE00013FCF00B4
:101DB800023FD000033FD10051085E02031DEE2E02
:101DC80050085D02031DEE2E4F085C02031DEE2E27
:101DD8004E085B02031CF82E0130CC004C08EB07C0
:101DE8000A306B06031DCB2E6B08CC00CD01CC1B33
:101DF800CD034D08803ACE006A08803A4E02031D92
:101E0800072F69084C0203180F2F22006908CC001D
:101E18004C08EB00272F22006B08CC00CD01CC1B0F
:101E2800CD036A08803ACE004D08803A4E02031D61
:101E38001F2F4C0869020318272F22006B08E9009E
:101E4800EA01E91BEA0322006308640403193A2F34
:101E580003306105CC0000306205CD004C084D040C
:101E680003193A2FFF30E307FF30E43D621F512F7B
:101E78006A08803ACC006408803A4C02031D462F59
:101E88006308690203184E2F22006908E3026A08F2
:101E9800E43B512F2200E301E4016B08CC00CD01A3
:101EA800CC1BCD034D08803ACE006408803A4E0220
:101EB800031D602F63084C0203186D2F22006B0866
:101EC800CC00CD01CC1BCD034C08E3024D08E43B0C
:101ED800702F2200E301E401611D8F2F033061059B
:101EE800CC0000306205CD004C084D040319802F4A
:101EF8002D308731F42788312200630864040319E0
:101F0800AE2F30308731F4278831FF302200E307C5
:101F1800FF30E43D812F630864040319A02F2030AB
:101F28008731F4278831FF302200E307FF30E43D92
:101F380063086404031D932F03306105CC0000304F
:101F48006205CD004C084D040319AE2F2D308731A2
:101F5800F4278831FF302200E907FF30EA3D690A9B
:101F680003196A0A0319DE2800302100B000003086
:101F7800AF000030AE000A30AD0022006A088500CC
:101F8800690884008435850D8435850D683084079B
:101F98009830853D003F2100A000013FA100023F8D
:101FA800A200033FA30022005E082100A700220030
:101FB8005D082100A60022005C082100A50022007F
:101FC8005B082100A4009A31CC2288312100230823
:101FD800B4002208B3002108B2002008B1009A31E9
:101FE8003F22883121002D08303E2200CC004C08C9
:081FF800EB006B08AB2F0800A1
:10202A00003021002005A80000302105A9008030D9
:10203A002205AA007F302305AB002B082A042904B5
:10204A002804031D30280030A3000030A20000300D
:10205A00A1000030A00000302405A80000302505AA
:10206A00A90080302605AA007F302705AB002B087F
:10207A002A0429042804031D4A280030A700003036
:10208A00A6000030A5000030A400A31F732800306A
:10209A00A8000030A9000030AA008030AB00200957
:1020AA00AC002109AD002209AE002309AF00AC0A39
:1020BA000319AD0A0319AE0A0319AF0A2C08A807B7
:1020CA002D08A93D2E08AA3D2F08AB3D2B08A300D9
:1020DA002A08A2002908A1002808A000A71F9C28F6
:1020EA000030A8000030A9000030AA008030AB0000
:1020FA002409AC002509AD002609AE002709AF0066
:10210A00AC0A0319AD0A0319AE0A0319AF0A2C085F
:10211A00A8072D08A93D2E08AA3D2F08AB3D2B087C
:10212A00A7002A08A6002908A5002808A4008030CC
:10213A00A3068030A70627082302031D08002608E5
:10214A002202031D080025082102031D0800240895
:10215A0020020800210043088039C4004408C9004D
:10216A004335C4004408D400C21B5414540803194C
:10217A00CC28540A031DC9280030C3000030C2000D
:10218A000030C1000030C000C217C301D42800309B
:10219A00C3000030C2000030C1000030C0003F0858
:1021AA008039C4004408C9063F35C4004408D50034
:1021BA00BE1B551455080319F028550A031DED28AE
:1021CA000030BF000030BE000030BD000030BC004F
:1021DA00BE17BF01F8280030BF000030BE00003033
:1021EA00BD000030BC003F083E043D043C04031D12
:1021FA0013290030C3000030C2000030C100003093
:10220A00C0008030C2047F30C3044308BF004208C4
:10221A00BE004108BD004008BC0008005408031D68
:10222A0027290030C3000030C2000030C10000304E
:10223A00C0004308BF004208BE004108BD00400874
:10224A00BC0008005508C400C501C409C509C40A70
:10225A000319C50A54084407C60045080318450A65
:10226A00C70046087F3ECE000030473DCF004308F6
:10227A00CD004208CC004108CB004008CA0000301B
:10228A00C3000030C2000030C1000030C00000307E
:10229A00D3000030D2000030D1000030D000D50188
:1022AA001A30550203189129550803197329013068
:1022BA00CA35CB0DCC0DCD0D890B5D290130C0354A
:1022CA00C10DC20DC30D890B6429D31B4014013003
:1022DA00D035D10DD20DD30D890B6D293F084D0292
:1022EA00031D81293E084C02031D81293D084B022A
:1022FA00031D81293C084A02031C8C2953173C08F8
:10230A00CA023D08CB3B3E08CC3B3F08CD3B0130DF
:10231A00C4004408D50755294D084C044B044A0407
:10232A00031D5014C21BAE290130C035C10DC20DA8
:10233A00C30D890B9A29D31B40140130D035D10D16
:10234A00D20DD30D890BA329FF30CE07FF30CF3D25
:10235A009729D501D31FC729FF305005C400FF3084
:10236A005105C500FF305205C6007F305305C7002E
:10237A004708460445044404031DC529401CC729CF
:10238A00D501D50A55080319F0290130C0070030D4
:10239A00C13D0030C23D0030C33D431CF029400816
:1023AA00C4004108C5004208C6004308C7000130FE
:1023BA00C800C737C60CC50CC40CC80BDE294708B1
:1023CA00C3004608C2004508C1004408C0000130E5
:1023DA00CE070030CF3D4F08803AC4008030440217
:1023EA00031DF929FF304E02031C082AFF30210081
:1023FA00CE000030CF000030C3000030C2000030F1
:10240A00C1000030C00021004F08803AC40080306B
:10241A004402031D122A01304E020318202A210009
:10242A00CE01CF010030C3000030C2000030C1002D
:10243A000030C000C90121004E08C4004408D4007D
:10244A00541C292AC2172D2A7F30C4004408C20509
:10245A005436C4004408C3004908C4004408C304ED
:10246A004308BF004208BE004108BD004008BC0046
:10247A0008002100E8006E306802031C1D2B0A3098
:10248A00A6000030A7006808CC00CD014C08A200C5
:10249A004D08A3006430A0000030A1009A318422C4
:1024AA00923121002108A9002008A8009B3121238C
:1024BA00923121002608CE002708CF00CE35CF0D55
:1024CA00CE35CF0D4E08243ED00000304F3DD1000E
:1024DA000030500784009830513D8500003FD200FB
:1024EA00013FD300023FD400033FD5005508B10095
:1024FA005408B0005308AF005208AE006430A6007A
:10250A000030A7006808D600D7015608A800570867
:10251A00A9009B312123923121002608D8002708DF
:10252A00D900D835D90DD835D90D5808483EDA0022
:10253A000030593DDB0000305A07840098305B3D7B
:10254A008500003FDC00013FDD00023FDE00033F63
:10255A00DF005F08B5005E08B4005D08B3005C08E0
:10256A00B2009531A725923121003108E7003008E1
:10257A00E6002F08E5002E08E4000A30A00000302B
:10258A00A1006808CC00CD014C08A2004D08A300A8
:10259A009A31842292312100210885002008840082
:1025AA008435850D8435850D003084079830853D46
:1025BA00003FCE00013FCF00023FD000033FD100D1
:1025CA005108B1005008B0004F08AF004E08AE00E5
:1025DA006708B5006608B4006508B3006408B2006D
:1025EA009531A725923121003108E3003008E20035
:1025FA002F08E1002E08E0003F30B1000030B000A3
:10260A000030AF000030AE006308B5006208B400C5
:10261A006108B3006008B2009531A725210031088E
:10262A00CB003008CA002F08C9002E08C8000800CD
:10263A000B306802031CA72B0A30A0000030A1004F
:10264A006808CC00CD014C08A2004D08A3009A31BD
:10265A0084229231210021088500200884008435D3
:10266A00850D8435850D003084079830853D003FFF
:10267A00CE00013FCF00023FD000033FD1005108F6
:10268A00B1005008B0004F08AF004E08AE000A3043
:10269A00A6000030A7006808D200D3015208A8009B
:1026AA005308A9009B312123923121002608D40026
:1026BA002708D500D435D50DD435D50D5408243E78
:1026CA00D6000030553DD7000030560784009830B8
:1026DA00573D8500003FD800013FD900023FDA008C
:1026EA00033FDB005B08B5005A08B4005908B30081
:1026FA005808B2009531A725923121003108E70028
:10270A003008E6002F08E5002E08E4003F30B1004B
:10271A000030B0000030AF000030AE006708B500EE
:10272A006608B4006508B3006408B2009531A725AD
:10273A0021003108CB003008CA002F08C9002E0832
:10274A00C80008003F30B1000030B0000030AF00D0
:10275A000030AE006808CC00CD01CC35CD0DCC35AB
:10276A00CD0D00304C07840098304D3D8500003F68
:10277A00CE00013FCF00023FD000033FD1005108F5
:10278A00B5005008B4004F08B3004E08B2009531A6
:10279A00A72521003108CB003008CA002F08C9003C
:1027AA002E08C800080023008C018D018E0121002B
:1027BA000D130D128E1312303D009F0023001E12BE
:1027CA009D170F309B009E163330A200BC30A1002B
:1027DA001030A000A00BEF2BA10BEF2BA20BEF2BBD
:1027EA0016308731F427933141302300A100EE30AF
:1027FA00A000A00BFE2BA10BFE2B0000113087318D
:10280A00F427933141302300A100EE30A000A00B41
:10281A000C2CA10B0C2C00000C308731F4279331BF
:10282A0041302300A100EE30A000A00B1A2CA10B0E
:10283A001A2C000022009C171C14210012163B00BF
:10284A001908F039043899001917981705309D00AE
:10285A00210093143B0099173000941731000D089A
:10286A00F83903388D00013030008D0067308C0054
:10287A000B178B1715302300A0002008AE0030304C
:10288A00A0002008AF00B00122008E130D160D170C
:10289A0014302300A2000730A1002330A000A00BAF
:1028AA00542CA10B542CA20B542C003222000D12D2
:1028BA000D1300302300A9000030A8000030A70043
:1028CA000030A60022006C080319672CEC010D17D2
:1028DA0001302300A6070030A73D0030A83D003094
:1028EA00A93D0130A0002008B0073C303002031C8B
:1028FA00902CB0010130A0002008AF073C302F0215
:10290A00031C902CAF010130A0002008AE0718303C
:10291A002E020318AE0120004D082100A900200054
:10292A004C082100A8000230A6000030A7009B3105
:10293A0021239331210026092300A0002100270921
:10294A002300A100A00A0319A10A20083C3EA20004
:10295A000030213DA30022082100AE0023002308F5
:10296A002100AF00890D893B8909B000B10001300F
:10297A009C318B24933121003108BF003008BE00FE
:10298A002F08BD002E08BC00200049082100C30002
:10299A00200048082100C200200047082100C10089
:1029AA00200046082100C0009031AF209331210059
:1029BA003F082300AD0021003E082300AC0021009F
:1029CA003D082300AB0021003C082300AA000C307C
:1029DA008731F42793310D302300A100FB30A0008A
:1029EA00A00BF52CA10BF52C003290302200BC0074
:1029FA009830BD0023002D082200C10023002C08B6
:102A0A002200C00023002B082200BF0023002A084E
:102A1A002200BE0023002E08A000A10120082200E7
:102A2A00C200230021082200C30023002F08A200AD
:102A3A00A30122082200C400230023082200C500A3
:102A4A0023003008A400A50124082200C6002300A0
:102A5A0025082200C7008831D920933122008E131D
:102A6A0007302300A1007D30A000A00B3A2DA10B56
:102A7A003A2DB6302200BC009830BD0023002D0844
:102A8A002200C10023002C082200C00023002B08CA
:102A9A002200BF0023002A082200BE0023002E08BD
:102AAA00A000A10120082200C20023002108220060
:102ABA00C30023002F08A200A30122082200C40099
:102ACA00230023082200C50023003008A400A50122
:102ADA0024082200C600230025082200C70023007C
:102AEA0029082200CB00230028082200CA0023005C
:102AFA0027082200C900230026082200C8008831BE
:102B0A00D920933107302300A1007D30A000A00B0B
:102B1A008C2DA10B8C2D22008E1700302000C900AD
:102B2A000030C8000030C7000030C600CC01CD011B
:102B3A0022000D136D080319A52D0D12ED01672C46
:102B4A000D16672C210031088039B6003608BB0003
:102B5A003135B6003608C100B01B411441080319CB
:102B6A00C32D410A031DC12D0030B1000030B00051
:102B7A000030AF000030AE00B017CB2D0030B100EE
:102B8A000030B0000030AF000030AE0035088039A8
:102B9A00B6003608BB063535B6003608BC00B41B8D
:102BAA003C143C080319E62D3C0A031DE42D0030B1
:102BBA00B5000030B4000030B3000030B200B417E2
:102BCA00EE2D0030B5000030B4000030B300003004
:102BDA00B2003C08031D4108031DFC2D0030B10062
:102BEA000030B0000030AF000030AE0008002E0800
:102BFA00B60036082000C000210034089A311A2293
:102C0A009531200041082100C7002000400821001A
:102C1A00C6004608B600B701B801B9013908C000B4
:102C2A003808BF003708BE003608BD004708B6009E
:102C3A00B701B801B9013908C5003808C400370816
:102C4A00C3003608C2002F08B60036082000C000AC
:102C5A00210033089A311A229531200041082100B7
:102C6A00C700200040082100C6004608B600B70188
:102C7A00B801B9013608BD073708BE3D3808BF3D5F
:102C8A003908C03D4708B600B701B801B90136088E
:102C9A00C2073708C33D3808C43D3908C53D300866
:102CAA00B60036082000C000210032089A311A22E4
:102CBA009531200041082100C7002000400821006A
:102CCA00C6004608B600B701B801B9013608BD0703
:102CDA003708BE3D3808BF3D3908C03D4708B60031
:102CEA00B701B801B9013608C2073708C33D380829
:102CFA00C43D3908C53D0830BD35BE0DBF0DC00DF8
:102D0A00890B812E2F08B60036082000C00021004A
:102D1A0032089A311A229531200041082100C70051
:102D2A00200040082100C6004608BD074708BE3DEE
:102D3A000030BF3DC03D2E08B60036082000C00056
:102D4A00210033089A311A229531200041082100C6
:102D5A00C700200040082100C6004608BD074708F2
:102D6A00BE3D0030BF3DC03D0830BD35BE0DBF0D74
:102D7A00C00D890BBA2E2E08B60036082000C000F6
:102D8A00210032089A311A22953120004108210087
:102D9A00C700200040082100C6004608BD074708B2
:102DAA00BE3D0030BF3DC03D2F08B60036082000AA
:102DBA00C000210034089A311A22953120004108B6
:102DCA002100C700200040082100C6004608C207AB
:102DDA004708C33D0030C43DC53D3008B60036083B
:102DEA002000C000210033089A311A2295312000B0
:102DFA0041082100C700200040082100C6004608FB
:102E0A00C2074708C33D0030C43DC53D3008B6007F
:102E1A0036082000C000210034089A311A22953160
:102E2A00200041082100C700200040082100C600F8
:102E3A004608B6004708B700B801B9010830B635E8
:102E4A00B70DB80DB90D890B242F3608C2073708FC
:102E5A00C33D3808C43D3908C53D3D08B6003E08A3
:102E6A00B7003F08B8004008B9001830B936B80CA6
:102E7A00B70CB60C890B3B2F3608C2073708C33D7F
:102E8A003808C43D3908C53D0830BD35BE0DBF0DF3
:102E9A00C00D890B4A2F41083C07B600B701B70D90
:102EAA003608823EC600FF30373DC700C41B722F6A
:102EBA000130C235C30DC40DC50D890B5E2FC01B71
:102ECA0042140130BD35BE0DBF0DC00D890B672FF1
:102EDA00FF30C607FF30C73D5B2FBC01C01F8B2FD9
:102EEA00FF303D05B600FF303E05B700FF303F0515
:102EFA00B8007F304005B900390838043704360471
:102F0A00031D892F421C8B2FBC01BC0A3C080319E4
:102F1A00B42F0130C2070030C33D0030C43D003039
:102F2A00C53D451CB42F4208B6004308B700440803
:102F3A00B8004508B9000130BA00B937B80CB70C67
:102F4A00B60CBA0BA22F3908C5003808C4003708D6
:102F5A00C3003608C2000130C6070030C73D470823
:102F6A00803AB60080303602031DBD2FFF3046027C
:102F7A00031CC92F7F302100C5008030C4000030F7
:102F8A00C3000030C200F32F21004708803AB60080
:102F9A0080303602031DD32F013046020318E02F7A
:102FAA0000302100C5000030C4000030C3000030EA
:102FBA00C200BB01F32F21004608B6003608C10043
:102FCA00FF30C205FF30C3057F30C4050030C50598
:102FDA004118C4174136B6003608C5003B08B6008A
:102FEA003608C5044508B1004408B0004308AF00DC
:102FFA004208AE0008000034003480343F34CD3437
:10300A00CC34CC343D340A34D73423343C346F3492
:10301A00123483343A341734B734D1343834AC34B4
:10302A00C53427343734BD3437348634353495348F
:10303A00BF34D63433347734CC342B3432345F341F
:10304A00703489343034FF34E634DB342E340834B7
:10305A00E5343C341E3460344234A2340D34003436
:10306A00003480343F340034003420344134003496
:10307A000034C8344234003400347A3444340034DE
:10308A0040341C34463400345034C334473400349A
:10309A002434743449348034963418344B3420340C
:1030AA00BC34BE344C3428346B346E344E34F93468
:1030BA00023415345034EC347834AD346034CA34C4
:1030CA00F2344934713401340034003400340A349F
:1030DA000034003400346434003400340034E834FA
:1030EA000334003400341034273400340034A0345C
:1030FA00863401340034403442340F34003480348E
:10310A009634983400340034E134F534053400340C
:10311A00CA349A343B342034203446345234453449
:10312A0051343A342034253435342E343334663429
:10313A0020342034203420342034203425343034D0
:10314A00323464343A3425343034323464343A34E0
:10315A00253430343234643420342034203420345A
:10316A000034253435342E34333466342C34253443
:10317A0064343A34253464343A34253464342C348F
:0A318A00253464340A340D34003497
:1033AC0080302200B7063B08A3003A08A200390877
:1033BC00A1003808A0003708A7003608A600350879
:1033CC00A5003408A4008331822322002308B7000F
:1033DC002208B6002108B5002008B400080020001F
:1033EC00C001C1012100201C022A22082000C007B4
:1033FC00210023082000C13D01302100A235A30D7E
:10340C00890B042A0130A136A00C890B092A20084B
:10341C002104031DF829200041082100A1002000EF
:10342C0040082100A00008002100A600A201A30171
:10343C00200040082100A000A1012008A4002108C0
:10344C00A500261C2D2A2408A2072508A33D01301F
:10345C00A435A50D890B2E2A0310A60C2608031DD6
:10346C00272A23082000C100210022082000C000C8
:10347C000800210030082F042E042D0403197B2A88
:10348C00B501B50AB01B582A0130AD35AE0DAF0DE4
:10349C00B00D890B4B2A01302000C10041082100DE
:1034AC00B507482A30083402031D662A2F08330258
:1034BC00031D662A2E083202031D662A2D083102CE
:1034CC00031C702A2D08B1022E08B23B2F08B33B07
:1034DC003008B43B0130B036AF0CAE0CAD0C890BE0
:1034EC00712A0130B502031D582A3408B000330884
:1034FC00AF003208AE003108AD0008002100A50174
:10350C00A31F8F2AA209A309A20A0319A30AA501C2
:10351C00A50AA11F962AA009A109A00A0319A10AAC
:10352C00200821040319BF2AA401A40AA11BAA2A5A
:10353C000130A035A10D890B9F2A01302000C0005D
:10354C0040082100A4079C2A21082302031DB02A4D
:10355C0020082202031CB62A2008A2022108A33B41
:10356C000130A136A00C890BB72A0130A402031D2F
:10357C00AA2A25080319C72AA209A309A20A031912
:10358C00A30A2308A1002208A00008000030210093
:10359C00AB000030AA000030A9000030A8002308BE
:1035AC002204210420040319182BAC01AC0AA31B20
:1035BC00ED2A0130A035A10DA20DA30D890BE02A37
:1035CC0001302000C00040082100AC07DD2A01308A
:1035DC00A835A90DAA0DAB0D890BEE2A23082702DD
:1035EC00031D022B22082602031D022B2108250293
:1035FC00031D022B20082402031C0D2B2008A402FF
:10360C002108A53B2208A63B2308A73B2814013020
:10361C00A336A20CA10CA00C890B0E2B0130AC0212
:10362C00031DED2A2B08A3002A08A2002908A100DB
:10363C002808A00008002100AB01A71F2C2BA6090D
:10364C00A709A60A0319A70AAB01AB0AA91F392BB4
:10365C00A809A909A80A0319A90A01302000C10068
:10366C0041082100AB06AC01AD0126082704031963
:10367C006A2BAA01AA0AA71B4F2B0130A635A70D4E
:10368C00890B442B01302000C10041082100AA07FE
:10369C00412B0130AC35AD0D890B502B270829027D
:1036AC00031D5A2B26082802031C612B2608A8028E
:1036BC002708A93B2C140130A736A60C890B622BCA
:1036CC000130AA02031D4F2B2B080319722BAC09D6
:1036DC00AD09AC0A0319AD0A2D08A7002C08A600E9
:1036EC00080021006108E5006208E6006308E700B5
:1036FC006408E8000310670D680DE9006908EB0029
:10370C006B08031D922B0030E4000030E300003006
:10371C00E2000030E10008006108E5006208E60004
:10372C006308E7006408E8001F30E836E70CE60C95
:10373C00E50C890B9B2B6508E9006908EA00E31787
:10374C00FF30E105FF30E205FF30E3050030E40512
:10375C009630EB02EB1FCE2B6B08803A973E03188A
:10376C00C02B0030E4000030E3000030E2000030F9
:10377C00E10008000130E436E30CE20CE10C890BAB
:10378C00C12B0130E5006508EB070319E72BC02BB3
:10379C0020306B02031CE42B0030E4000030E3000B
:1037AC000030E2000030E10008000130E135E20DAC
:1037BC00E30DE40D890BDC2B0130EB026B08031DD0
:1037CC00DB2B6A0803190800E109E209E309E409A3
:1037DC00E10A0319E20A0319E30A0319E40A0800CF
:1037EC00F8007808031DF31F0B2C7009FA007109FF
:1037FC00FB007209FC007309FD00FA0A0319FB0AAD
:10380C000319FC0A0319FD0A132C7308FD00720836
:10381C00FC007108FB007008FA0073087204710454
:10382C007004031D222C0030F3000030F200003035
:10383C00F1000030F00008009630F4007408F90034
:10384C00FE307D050319492C0130F4007408F9078A
:10385C000130FD36FC0CFB0CFA0C890B2F2C262CA2
:10386C000130F4007408F9070130FA070030FB3D11
:10387C000030FC3D0030FD3D0130FD36FC0CFB0CF6
:10388C00FA0C890B432CFF307D050319572C362C71
:10389C000130F9020130FA35FB0DFC0DFD0D890BE1
:1038AC00512CFC1B5D2C0230790203184E2C79181C
:1038BC00672CFF30FA05FF30FB057F30FC05FF302D
:1038CC00FD050310F90C7908F400F501F601F70178
:1038DC001830F435F50DF60DF70D890B6F2C7408B7
:1038EC00FA047508FB047608FC047708FD047808D4
:1038FC00031DF31F822CFD177D08F3007C08F200DA
:10390C007B08F1007A08F00008002100B6003608A8
:10391C00031DB11FA12C2E09B8002F09B9003009C5
:10392C00BA003109BB00B80A0319B90A0319BA0A5B
:10393C000319BB0AA92C3108BB003008BA002F08A8
:10394C00B9002E08B800310830042F042E04031DD2
:10395C00B82C0030B1000030B0000030AF000030A7
:10396C00AE0008009630B2003208B700FE303B05BE
:10397C000319DF2C0130B2003208B7070130BB3617
:10398C00BA0CB90CB80C890BC52CBC2C0130B2008C
:10399C003208B7070130B8070030B93D0030BA3DE6
:1039AC000030BB3D0130BB36BA0CB90CB80C890BDE
:1039BC00D92CFF303B050319ED2CCC2C0130B70270
:1039CC000130B835B90DBA0DBB0D890BE72CBA1BFC
:1039DC00F32C023037020318E42C3718FD2CFF307F
:1039EC00B805FF30B9057F30BA05FF30BB050310B1
:1039FC00B70C3708B200B301B401B5011830B235B9
:103A0C00B30DB40DB50D890B052D3208B804330870
:103A1C00B9043408BA043508BB043608031DB11FB9
:103A2C00182DBB173B08B1003A08B0003908AF009D
:103A3C003808AE000800003070052000A0000030EF
:103A4C007105A10080307205A2007F307305A300C0
:103A5C002308220421042004031D3C2D0030F30014
:103A6C000030F2000030F1000030F000003074053E
:103A7C00A00000307505A10080307605A2007F30D3
:103A8C007705A3002308220421042004031D562DCE
:103A9C000030F7000030F6000030F5000030F40084
:103AAC00F31F7F2D0030A0000030A1000030A200D9
:103ABC008030A3007009A4007109A5007209A6004A
:103ACC007309A700A40A0319A50A0319A60A031966
:103ADC00A70A2408A0072508A13D2608A23D27080F
:103AEC00A33D2308F3002208F2002108F10020086E
:103AFC00F000F71FA82D0030A0000030A10000300E
:103B0C00A2008030A3007409A4007509A5007609F1
:103B1C00A6007709A700A40A0319A50A0319A60A87
:103B2C000319A70A2408A0072508A13D2608A23DD1
:103B3C002708A33D2308F7002208F6002108F5000A
:103B4C002008F4008030F3068030F7067708730203
:103B5C00031D080076087202031D08007508710227
:103B6C00031D080074087002080021002008A6003C
:103B7C002108A7002208A8000310270D280DA90072
:103B8C002908AF002F08031DD42D0030A3000030EE
:103B9C00A2000030A1000030A00008002308A600FD
:103BAC002408A7002508A8000310270D280DA9003C
:103BBC002908AE002E08031DEC2D0030A3000030A8
:103BCC00A2000030A1000030A0000800A117FF30B7
:103BDC00A005FF30A1050030A205A417FF30A305F6
:103BEC00FF30A4050030A5050030AD000030AC005E
:103BFC000030AB000030AA007F30AF0298302E07A7
:103C0C00A6002608AF021830A6002608AE00013028
:103C1C00AA35AB0DAC0DAD0D890B0E2E250822026D
:103C2C00031D1E2E24082102031D1E2E2308200214
:103C3C00031C272E2308A0022408A13B2508A23B25
:103C4C002A140130A035A10DA20D890B282E0130AC
:103C5C00AE02031D0D2EAF1F4F2E2F08803A973E3C
:103C6C000318412E0030A3000030A2000030A10048
:103C7C000030A00008000130AD36AC0CAB0CAA0C27
:103C8C00890B422E0130A6002608AF070319682EB7
:103C9C00412E18302F02031C652E0030A30000307B
:103CAC00A2000030A1000030A00008000130AA35AD
:103CBC00AB0DAC0DAD0D890B5D2E0130AF022F0895
:103CCC00031D5C2E2D08A3002C08A2002B08A100BC
:103CDC002A08A0000800200027088039A80028081E
:103CEC00AD002735A8002808B800A61B38143808E2
:103CFC0003198E2E380A031D8B2E0030A7000030BE
:103D0C00A6000030A5000030A400A617A701962E2F
:103D1C000030A7000030A6000030A5000030A40041
:103D2C0023088039A8002808AD062335A8002808E8
:103D3C00B900A21B391439080319B22E390A031D14
:103D4C00AF2E0030A3000030A2000030A1000030E4
:103D5C00A000A217A301BA2E0030A3000030A200CD
:103D6C000030A1000030A00023082204210420040C
:103D7C00031DD52E0030A7000030A6000030A50092
:103D8C000030A4008030A6047F30A7042708A300CD
:103D9C002608A2002508A1002408A0000800380865
:103DAC00031DE92E0030A7000030A6000030A5004E
:103DBC000030A4002708A3002608A2002508A100B3
:103DCC002408A00008003908A800A901A809A9091D
:103DDC00A80A0319A90A38082807AA0029080318F1
:103DEC00290AAB002A087F3EB20000302B3DB300FD
:103DFC002708B1002608B0002508AF002408AE0043
:103E0C000030A7000030A6000030A5000030A40050
:103E1C000030B7000030B6000030B5000030B40000
:103E2C00B9011A3039020318532F39080319352FE9
:103E3C000130AE35AF0DB00DB10D890B1F2F013018
:103E4C00A435A50DA60DA70D890B262FB71B241481
:103E5C000130B435B50DB60DB70D890B2F2F2308D6
:103E6C003102031D432F22083002031D432F21086A
:103E7C002F02031D432F20082E02031C4E2F371731
:103E8C002008AE022108AF3B2208B03B2308B13B0F
:103E9C000130A8002808B907172F310830042F0467
:103EAC002E04031D3414A61B702F0130A435A50D50
:103EBC00A60DA70D890B5C2FB71B24140130B4354C
:103ECC00B50DB60DB70D890B652FFF30B207FF305E
:103EDC00B33D592FB901B71F892FFF303405A80006
:103EEC00FF303505A900FF303605AA007F303705B5
:103EFC00AB002B082A0429042804031D872F241C3B
:103F0C00892FB901B90A39080319B22F0130A40756
:103F1C000030A53D0030A63D0030A73D271CB22F38
:103F2C002408A8002508A9002608AA002708AB0029
:103F3C000130AC00AB37AA0CA90CA80CAC0BA02F11
:103F4C002B08A7002A08A6002908A5002808A40009
:103F5C000130B2070030B33D3308803AA8008030FE
:103F6C002802031DBB2FFF303202031CCA2FFF3067
:103F7C002000B2000030B3000030A7000030A600D3
:103F8C000030A5000030A40020003308803AA800BF
:103F9C0080302802031DD42F013032020318E22F87
:103FAC002000B201B3010030A7000030A6000030A1
:103FBC00A5000030A400AD0120003208A80028089C
:103FCC00B800381CEB2FA617EF2F7F30A80028085D
:103FDC00A6053836A8002808A7002D08A800280830
:103FEC00A7042708A3002608A2002508A10024087E
:043FFC00A000080019
:020000040001F9
:06000E00DF3F7F3E9F3F33
:00000001FF
